{
  "contractName": "OwnerRoleMock",
  "abi": [
    {
      "constant": false,
      "inputs": [],
      "name": "renounceOwner",
      "outputs": [],
      "payable": false,
      "stateMutability": "nonpayable",
      "type": "function"
    },
    {
      "constant": true,
      "inputs": [
        {
          "name": "account",
          "type": "address"
        }
      ],
      "name": "isOwner",
      "outputs": [
        {
          "name": "",
          "type": "bool"
        }
      ],
      "payable": false,
      "stateMutability": "view",
      "type": "function"
    },
    {
      "constant": false,
      "inputs": [
        {
          "name": "account",
          "type": "address"
        }
      ],
      "name": "addOwner",
      "outputs": [],
      "payable": false,
      "stateMutability": "nonpayable",
      "type": "function"
    },
    {
      "anonymous": false,
      "inputs": [
        {
          "indexed": true,
          "name": "account",
          "type": "address"
        }
      ],
      "name": "OwnerAdded",
      "type": "event"
    },
    {
      "anonymous": false,
      "inputs": [
        {
          "indexed": true,
          "name": "account",
          "type": "address"
        }
      ],
      "name": "OwnerRemoved",
      "type": "event"
    },
    {
      "constant": false,
      "inputs": [
        {
          "name": "account",
          "type": "address"
        }
      ],
      "name": "removeOwner",
      "outputs": [],
      "payable": false,
      "stateMutability": "nonpayable",
      "type": "function"
    },
    {
      "constant": true,
      "inputs": [],
      "name": "onlyOwnerMock",
      "outputs": [],
      "payable": false,
      "stateMutability": "view",
      "type": "function"
    }
  ],
  "bytecode": "0x60806040526100133361001860201b60201c565b610189565b61003081600061006760201b6102bd1790919060201c565b6040516001600160a01b038216907f994a936646fe87ffe4f1e469d3d6aa417d6b855598397f323de5b449f765f0c390600090a250565b610077828261010860201b60201c565b156100e357604080517f08c379a000000000000000000000000000000000000000000000000000000000815260206004820152601f60248201527f526f6c65733a206163636f756e7420616c72656164792068617320726f6c6500604482015290519081900360640190fd5b6001600160a01b0316600090815260209190915260409020805460ff19166001179055565b60006001600160a01b038216610169576040517f08c379a00000000000000000000000000000000000000000000000000000000081526004018080602001828103825260228152602001806105e06022913960400191505060405180910390fd5b506001600160a01b03166000908152602091909152604090205460ff1690565b610448806101986000396000f3fe608060405234801561001057600080fd5b50600436106100575760003560e01c8063173825d91461005c57806328c23a45146100845780632f54bf6e1461008c5780637065cb48146100c65780637be19621146100ec575b600080fd5b6100826004803603602081101561007257600080fd5b50356001600160a01b03166100f4565b005b610082610100565b6100b2600480360360208110156100a257600080fd5b50356001600160a01b031661010b565b604080519115158252519081900360200190f35b610082600480360360208110156100dc57600080fd5b50356001600160a01b0316610123565b610082610173565b6100fd816101ba565b50565b610109336101ba565b565b600061011d818363ffffffff6101c316565b92915050565b61012c3361010b565b61016a57604051600160e51b62461bcd02815260040180806020018281038252602e8152602001806103ac602e913960400191505060405180910390fd5b6100fd8161022d565b61017c3361010b565b61010957604051600160e51b62461bcd02815260040180806020018281038252602e8152602001806103ac602e913960400191505060405180910390fd5b6100fd81610275565b60006001600160a01b03821661020d57604051600160e51b62461bcd0281526004018080602001828103825260228152602001806103fb6022913960400191505060405180910390fd5b506001600160a01b03166000908152602091909152604090205460ff1690565b61023e60008263ffffffff6102bd16565b6040516001600160a01b038216907f994a936646fe87ffe4f1e469d3d6aa417d6b855598397f323de5b449f765f0c390600090a250565b61028660008263ffffffff61034116565b6040516001600160a01b038216907f58619076adf5bb0943d100ef88d52d7c3fd691b19d3a9071b555b651fbf418da90600090a250565b6102c782826101c3565b1561031c5760408051600160e51b62461bcd02815260206004820152601f60248201527f526f6c65733a206163636f756e7420616c72656164792068617320726f6c6500604482015290519081900360640190fd5b6001600160a01b0316600090815260209190915260409020805460ff19166001179055565b61034b82826101c3565b61038957604051600160e51b62461bcd0281526004018080602001828103825260218152602001806103da6021913960400191505060405180910390fd5b6001600160a01b0316600090815260209190915260409020805460ff1916905556fe4f776e6572526f6c653a2063616c6c657220646f6573206e6f74206861766520746865204f776e657220726f6c65526f6c65733a206163636f756e7420646f6573206e6f74206861766520726f6c65526f6c65733a206163636f756e7420697320746865207a65726f2061646472657373a165627a7a723058207c06507424cf3c510f3bab2f3a4d6590dd50dfe5be93ea6213cf9b231f41d8380029526f6c65733a206163636f756e7420697320746865207a65726f2061646472657373",
  "source": "// Copyright (c) 2019-2021 klaytn-contract Authors\n// Copyright (c) 2016-2019 zOS Global Limited\n// Distributed under the MIT software license, see the accompanying\n// file COPYING or http://www.opensource.org/licenses/mit-license.php.\n\npragma solidity ^0.5.0;\n\nimport \"../OwnerRole.sol\";\n\ncontract OwnerRoleMock is OwnerRole {\n    function removeOwner(address account) public {\n        _removeOwner(account);\n    }\n\n    function onlyOwnerMock() public view onlyOwner {\n        // solhint-disable-previous-line no-empty-blocks\n    }\n\n    // Causes a compilation error if super._removeOwner is not internal\n    function _removeOwner(address account) internal {\n        super._removeOwner(account);\n    }\n}\n",
  "sourcePath": "/home/jinwoolim/sigmoid-token/contracts/mocks/MinterRoleMock.sol",
  "compiler": {
    "name": "solc",
    "version": "0.5.6+commit.b259423e.Emscripten.clang"
  },
  "schemaVersion": "3.4.4",
  "updatedAt": "2022-02-24T22:30:09.357Z",
  "devdoc": {
    "methods": {}
  },
  "userdoc": {
    "methods": {}
  }
}