{
	"contractName": "SigmoidToken",
	"abi": [
		{
			"inputs": [],
			"payable": false,
			"stateMutability": "nonpayable",
			"type": "constructor"
		},
		{
			"anonymous": false,
			"inputs": [
				{
					"indexed": true,
					"internalType": "address",
					"name": "owner",
					"type": "address"
				},
				{
					"indexed": true,
					"internalType": "address",
					"name": "spender",
					"type": "address"
				},
				{
					"indexed": false,
					"internalType": "uint256",
					"name": "value",
					"type": "uint256"
				}
			],
			"name": "Approval",
			"type": "event"
		},
		{
			"anonymous": false,
			"inputs": [
				{
					"indexed": true,
					"internalType": "address",
					"name": "from",
					"type": "address"
				},
				{
					"indexed": false,
					"internalType": "uint256",
					"name": "reward_amount",
					"type": "uint256"
				},
				{
					"indexed": false,
					"internalType": "uint256",
					"name": "epochCount",
					"type": "uint256"
				},
				{
					"indexed": false,
					"internalType": "bytes32",
					"name": "newBlockHash",
					"type": "bytes32"
				}
			],
			"name": "Mint",
			"type": "event"
		},
		{
			"anonymous": false,
			"inputs": [
				{
					"indexed": true,
					"internalType": "address",
					"name": "account",
					"type": "address"
				}
			],
			"name": "OwnerAdded",
			"type": "event"
		},
		{
			"anonymous": false,
			"inputs": [
				{
					"indexed": true,
					"internalType": "address",
					"name": "account",
					"type": "address"
				}
			],
			"name": "OwnerRemoved",
			"type": "event"
		},
		{
			"anonymous": false,
			"inputs": [
				{
					"indexed": false,
					"internalType": "bool",
					"name": "is_balloon",
					"type": "bool"
				}
			],
			"name": "Switch",
			"type": "event"
		},
		{
			"anonymous": false,
			"inputs": [
				{
					"indexed": true,
					"internalType": "address",
					"name": "from",
					"type": "address"
				},
				{
					"indexed": true,
					"internalType": "address",
					"name": "to",
					"type": "address"
				},
				{
					"indexed": false,
					"internalType": "uint256",
					"name": "value",
					"type": "uint256"
				}
			],
			"name": "Transfer",
			"type": "event"
		},
		{
			"payable": true,
			"stateMutability": "payable",
			"type": "fallback"
		},
		{
			"constant": true,
			"inputs": [],
			"name": "_BLOCKS_PER_READJUSTMENT",
			"outputs": [
				{
					"internalType": "uint256",
					"name": "",
					"type": "uint256"
				}
			],
			"payable": false,
			"stateMutability": "view",
			"type": "function"
		},
		{
			"constant": true,
			"inputs": [],
			"name": "_MAXIMUM_TARGET",
			"outputs": [
				{
					"internalType": "uint256",
					"name": "",
					"type": "uint256"
				}
			],
			"payable": false,
			"stateMutability": "view",
			"type": "function"
		},
		{
			"constant": true,
			"inputs": [],
			"name": "_MINIMUM_TARGET",
			"outputs": [
				{
					"internalType": "uint256",
					"name": "",
					"type": "uint256"
				}
			],
			"payable": false,
			"stateMutability": "view",
			"type": "function"
		},
		{
			"constant": false,
			"inputs": [
				{
					"internalType": "address",
					"name": "account",
					"type": "address"
				}
			],
			"name": "addOwner",
			"outputs": [],
			"payable": false,
			"stateMutability": "nonpayable",
			"type": "function"
		},
		{
			"constant": true,
			"inputs": [
				{
					"internalType": "address",
					"name": "owner",
					"type": "address"
				},
				{
					"internalType": "address",
					"name": "spender",
					"type": "address"
				}
			],
			"name": "allowance",
			"outputs": [
				{
					"internalType": "uint256",
					"name": "",
					"type": "uint256"
				}
			],
			"payable": false,
			"stateMutability": "view",
			"type": "function"
		},
		{
			"constant": false,
			"inputs": [
				{
					"internalType": "address",
					"name": "spender",
					"type": "address"
				},
				{
					"internalType": "uint256",
					"name": "value",
					"type": "uint256"
				}
			],
			"name": "approve",
			"outputs": [
				{
					"internalType": "bool",
					"name": "",
					"type": "bool"
				}
			],
			"payable": false,
			"stateMutability": "nonpayable",
			"type": "function"
		},
		{
			"constant": true,
			"inputs": [
				{
					"internalType": "address",
					"name": "account",
					"type": "address"
				}
			],
			"name": "balanceOf",
			"outputs": [
				{
					"internalType": "uint256",
					"name": "",
					"type": "uint256"
				}
			],
			"payable": false,
			"stateMutability": "view",
			"type": "function"
		},
		{
			"constant": true,
			"inputs": [],
			"name": "currentTarget",
			"outputs": [
				{
					"internalType": "uint256",
					"name": "",
					"type": "uint256"
				}
			],
			"payable": false,
			"stateMutability": "view",
			"type": "function"
		},
		{
			"constant": true,
			"inputs": [],
			"name": "decimals",
			"outputs": [
				{
					"internalType": "uint8",
					"name": "",
					"type": "uint8"
				}
			],
			"payable": false,
			"stateMutability": "view",
			"type": "function"
		},
		{
			"constant": true,
			"inputs": [],
			"name": "epochCount",
			"outputs": [
				{
					"internalType": "uint256",
					"name": "",
					"type": "uint256"
				}
			],
			"payable": false,
			"stateMutability": "view",
			"type": "function"
		},
		{
			"constant": true,
			"inputs": [
				{
					"internalType": "address",
					"name": "account",
					"type": "address"
				}
			],
			"name": "isOwner",
			"outputs": [
				{
					"internalType": "bool",
					"name": "",
					"type": "bool"
				}
			],
			"payable": false,
			"stateMutability": "view",
			"type": "function"
		},
		{
			"constant": true,
			"inputs": [],
			"name": "lastRewardAmount",
			"outputs": [
				{
					"internalType": "uint256",
					"name": "",
					"type": "uint256"
				}
			],
			"payable": false,
			"stateMutability": "view",
			"type": "function"
		},
		{
			"constant": true,
			"inputs": [],
			"name": "lastRewardEthBlockNumber",
			"outputs": [
				{
					"internalType": "uint256",
					"name": "",
					"type": "uint256"
				}
			],
			"payable": false,
			"stateMutability": "view",
			"type": "function"
		},
		{
			"constant": true,
			"inputs": [],
			"name": "lastRewardTo",
			"outputs": [
				{
					"internalType": "address",
					"name": "",
					"type": "address"
				}
			],
			"payable": false,
			"stateMutability": "view",
			"type": "function"
		},
		{
			"constant": true,
			"inputs": [],
			"name": "latestDifficultyPeriodStarted",
			"outputs": [
				{
					"internalType": "uint256",
					"name": "",
					"type": "uint256"
				}
			],
			"payable": false,
			"stateMutability": "view",
			"type": "function"
		},
		{
			"constant": true,
			"inputs": [],
			"name": "maxSupplyForEra",
			"outputs": [
				{
					"internalType": "uint256",
					"name": "",
					"type": "uint256"
				}
			],
			"payable": false,
			"stateMutability": "view",
			"type": "function"
		},
		{
			"constant": true,
			"inputs": [],
			"name": "maxTotalSupply",
			"outputs": [
				{
					"internalType": "uint256",
					"name": "",
					"type": "uint256"
				}
			],
			"payable": false,
			"stateMutability": "view",
			"type": "function"
		},
		{
			"constant": true,
			"inputs": [],
			"name": "name",
			"outputs": [
				{
					"internalType": "string",
					"name": "",
					"type": "string"
				}
			],
			"payable": false,
			"stateMutability": "view",
			"type": "function"
		},
		{
			"constant": true,
			"inputs": [],
			"name": "previousBlockHash",
			"outputs": [
				{
					"internalType": "bytes32",
					"name": "",
					"type": "bytes32"
				}
			],
			"payable": false,
			"stateMutability": "view",
			"type": "function"
		},
		{
			"constant": false,
			"inputs": [],
			"name": "renounceOwner",
			"outputs": [],
			"payable": false,
			"stateMutability": "nonpayable",
			"type": "function"
		},
		{
			"constant": true,
			"inputs": [],
			"name": "rewardEra",
			"outputs": [
				{
					"internalType": "uint256",
					"name": "",
					"type": "uint256"
				}
			],
			"payable": false,
			"stateMutability": "view",
			"type": "function"
		},
		{
			"constant": false,
			"inputs": [
				{
					"internalType": "address",
					"name": "recipient",
					"type": "address"
				},
				{
					"internalType": "uint256",
					"name": "amount",
					"type": "uint256"
				}
			],
			"name": "safeTransfer",
			"outputs": [],
			"payable": false,
			"stateMutability": "nonpayable",
			"type": "function"
		},
		{
			"constant": false,
			"inputs": [
				{
					"internalType": "address",
					"name": "recipient",
					"type": "address"
				},
				{
					"internalType": "uint256",
					"name": "amount",
					"type": "uint256"
				},
				{
					"internalType": "bytes",
					"name": "data",
					"type": "bytes"
				}
			],
			"name": "safeTransfer",
			"outputs": [],
			"payable": false,
			"stateMutability": "nonpayable",
			"type": "function"
		},
		{
			"constant": false,
			"inputs": [
				{
					"internalType": "address",
					"name": "sender",
					"type": "address"
				},
				{
					"internalType": "address",
					"name": "recipient",
					"type": "address"
				},
				{
					"internalType": "uint256",
					"name": "amount",
					"type": "uint256"
				}
			],
			"name": "safeTransferFrom",
			"outputs": [],
			"payable": false,
			"stateMutability": "nonpayable",
			"type": "function"
		},
		{
			"constant": false,
			"inputs": [
				{
					"internalType": "address",
					"name": "sender",
					"type": "address"
				},
				{
					"internalType": "address",
					"name": "recipient",
					"type": "address"
				},
				{
					"internalType": "uint256",
					"name": "amount",
					"type": "uint256"
				},
				{
					"internalType": "bytes",
					"name": "data",
					"type": "bytes"
				}
			],
			"name": "safeTransferFrom",
			"outputs": [],
			"payable": false,
			"stateMutability": "nonpayable",
			"type": "function"
		},
		{
			"constant": true,
			"inputs": [
				{
					"internalType": "bytes4",
					"name": "interfaceId",
					"type": "bytes4"
				}
			],
			"name": "supportsInterface",
			"outputs": [
				{
					"internalType": "bool",
					"name": "",
					"type": "bool"
				}
			],
			"payable": false,
			"stateMutability": "view",
			"type": "function"
		},
		{
			"constant": true,
			"inputs": [],
			"name": "symbol",
			"outputs": [
				{
					"internalType": "string",
					"name": "",
					"type": "string"
				}
			],
			"payable": false,
			"stateMutability": "view",
			"type": "function"
		},
		{
			"constant": true,
			"inputs": [],
			"name": "totalSupply",
			"outputs": [
				{
					"internalType": "uint256",
					"name": "",
					"type": "uint256"
				}
			],
			"payable": false,
			"stateMutability": "view",
			"type": "function"
		},
		{
			"constant": false,
			"inputs": [
				{
					"internalType": "address",
					"name": "recipient",
					"type": "address"
				},
				{
					"internalType": "uint256",
					"name": "amount",
					"type": "uint256"
				}
			],
			"name": "transfer",
			"outputs": [
				{
					"internalType": "bool",
					"name": "",
					"type": "bool"
				}
			],
			"payable": false,
			"stateMutability": "nonpayable",
			"type": "function"
		},
		{
			"constant": false,
			"inputs": [
				{
					"internalType": "address",
					"name": "sender",
					"type": "address"
				},
				{
					"internalType": "address",
					"name": "recipient",
					"type": "address"
				},
				{
					"internalType": "uint256",
					"name": "amount",
					"type": "uint256"
				}
			],
			"name": "transferFrom",
			"outputs": [
				{
					"internalType": "bool",
					"name": "",
					"type": "bool"
				}
			],
			"payable": false,
			"stateMutability": "nonpayable",
			"type": "function"
		},
		{
			"constant": false,
			"inputs": [
				{
					"internalType": "uint256",
					"name": "s_cost",
					"type": "uint256"
				},
				{
					"internalType": "uint256",
					"name": "t_cost",
					"type": "uint256"
				},
				{
					"internalType": "uint256",
					"name": "delta",
					"type": "uint256"
				}
			],
			"name": "_fixHashingComplexity",
			"outputs": [],
			"payable": false,
			"stateMutability": "nonpayable",
			"type": "function"
		},
		{
			"constant": false,
			"inputs": [],
			"name": "_giveupBalloonHashing",
			"outputs": [],
			"payable": false,
			"stateMutability": "nonpayable",
			"type": "function"
		},
		{
			"constant": false,
			"inputs": [],
			"name": "_retryBalloonHashing",
			"outputs": [],
			"payable": false,
			"stateMutability": "nonpayable",
			"type": "function"
		},
		{
			"constant": false,
			"inputs": [
				{
					"internalType": "uint256",
					"name": "nonce",
					"type": "uint256"
				}
			],
			"name": "mint",
			"outputs": [
				{
					"internalType": "bool",
					"name": "",
					"type": "bool"
				}
			],
			"payable": false,
			"stateMutability": "nonpayable",
			"type": "function"
		},
		{
			"constant": true,
			"inputs": [],
			"name": "getMiningReward",
			"outputs": [
				{
					"internalType": "uint256",
					"name": "",
					"type": "uint256"
				}
			],
			"payable": false,
			"stateMutability": "view",
			"type": "function"
		},
		{
			"constant": true,
			"inputs": [],
			"name": "getPreviousBlockHash",
			"outputs": [
				{
					"internalType": "bytes32",
					"name": "",
					"type": "bytes32"
				}
			],
			"payable": false,
			"stateMutability": "view",
			"type": "function"
		},
		{
			"constant": true,
			"inputs": [],
			"name": "getMiningDifficulty",
			"outputs": [
				{
					"internalType": "uint256",
					"name": "",
					"type": "uint256"
				}
			],
			"payable": false,
			"stateMutability": "view",
			"type": "function"
		},
		{
			"constant": true,
			"inputs": [],
			"name": "getCurrentTarget",
			"outputs": [
				{
					"internalType": "uint256",
					"name": "",
					"type": "uint256"
				}
			],
			"payable": false,
			"stateMutability": "view",
			"type": "function"
		},
		{
			"constant": true,
			"inputs": [],
			"name": "getHashingParameters",
			"outputs": [
				{
					"internalType": "uint256[3]",
					"name": "",
					"type": "uint256[3]"
				}
			],
			"payable": false,
			"stateMutability": "view",
			"type": "function"
		},
		{
			"constant": true,
			"inputs": [],
			"name": "isBalloon",
			"outputs": [
				{
					"internalType": "bool",
					"name": "",
					"type": "bool"
				}
			],
			"payable": false,
			"stateMutability": "view",
			"type": "function"
		},
		{
			"constant": true,
			"inputs": [
				{
					"internalType": "uint256",
					"name": "nonce",
					"type": "uint256"
				},
				{
					"internalType": "uint256",
					"name": "salt",
					"type": "uint256"
				},
				{
					"internalType": "uint256",
					"name": "s_cost",
					"type": "uint256"
				},
				{
					"internalType": "uint256",
					"name": "t_cost",
					"type": "uint256"
				},
				{
					"internalType": "uint256",
					"name": "delta",
					"type": "uint256"
				}
			],
			"name": "getMintDigest",
			"outputs": [
				{
					"internalType": "uint256",
					"name": "",
					"type": "uint256"
				}
			],
			"payable": false,
			"stateMutability": "view",
			"type": "function"
		}
	],
	"bytecode": "0x608060409081526007805460ff19908116909155601391909155620100006014557d040000000000000000000000000000000000000000000000000000000000601555601680549091166001179055610100601755600360188190556019553480156200006b57600080fd5b50620000a07f01ffc9a7000000000000000000000000000000000000000000000000000000006001600160e01b036200022d16565b620000d47f65787371000000000000000000000000000000000000000000000000000000006001600160e01b036200022d16565b620000e8336001600160e01b03620002fc16565b6200011c7feab83e20000000000000000000000000000000000000000000000000000000006001600160e01b036200022d16565b6040805180820190915260038082527f5349470000000000000000000000000000000000000000000000000000000000602090920191825262000162916005916200058a565b5060408051808201909152600d8082527f5369676d6f696420546f6b656e000000000000000000000000000000000000006020909201918252620001a9916006916200058a565b506007805461ff001916610800179081905560ff61010082048116600a0a6301406f4002600c551615620001dc57600080fd5b60078054600160ff199091168117909155600855436009556000600a55600c54620002159060026200034e602090811b6200185117901c565b600b55601554600d55600019430140600e556200062f565b7fffffffff000000000000000000000000000000000000000000000000000000008082161415620002bf57604080517f08c379a000000000000000000000000000000000000000000000000000000000815260206004820152601b60248201527f4b495031333a20696e76616c696420696e746572666163652069640000000000604482015290519081900360640190fd5b7fffffffff00000000000000000000000000000000000000000000000000000000166000908152602081905260409020805460ff19166001179055565b620003178160046200039f60201b620026ac1790919060201c565b6040516001600160a01b038216907f994a936646fe87ffe4f1e469d3d6aa417d6b855598397f323de5b449f765f0c390600090a250565b60006200039883836040518060400160405280601a81526020017f536166654d6174683a206469766973696f6e206279207a65726f0000000000008152506200044660201b60201c565b9392505050565b620003b482826001600160e01b036200050716565b156200042157604080517f08c379a000000000000000000000000000000000000000000000000000000000815260206004820152601f60248201527f526f6c65733a206163636f756e7420616c72656164792068617320726f6c6500604482015290519081900360640190fd5b6001600160a01b0316600090815260209190915260409020805460ff19166001179055565b60008183620004f0576040517f08c379a00000000000000000000000000000000000000000000000000000000081526004018080602001828103825283818151815260200191508051906020019080838360005b83811015620004b45781810151838201526020016200049a565b50505050905090810190601f168015620004e25780820380516001836020036101000a031916815260200191505b509250505060405180910390fd5b506000838581620004fd57fe5b0495945050505050565b60006001600160a01b0382166200056a576040517f08c379a0000000000000000000000000000000000000000000000000000000008152600401808060200182810382526022815260200180620030886022913960400191505060405180910390fd5b506001600160a01b03166000908152602091909152604090205460ff1690565b828054600181600116156101000203166002900490600052602060002090601f016020900481019282601f10620005cd57805160ff1916838001178555620005fd565b82800160010185558215620005fd579182015b82811115620005fd578251825591602001919060010190620005e0565b506200060b9291506200060f565b5090565b6200062c91905b808211156200060b576000815560010162000616565b90565b612a49806200063f6000396000f3fe6080604052600436106102465760003560e01c80634fa972e111610139578063a0712d68116100b6578063bafedcaa1161007a578063bafedcaa14610872578063cb9ae70714610887578063dc6e9cf91461089c578063dd62ed3e146108b1578063e3a43588146108ec578063eb7955491461092257610246565b8063a0712d68146106da578063a9059cbb14610704578063b5ade81b1461073d578063b722c31914610752578063b88d4fde1461079f57610246565b8063829965cc116100fd578063829965cc146106445780638352bcc5146106595780638395f7a41461069b57806387a2a9d6146106b057806395d89b41146106c557610246565b80634fa972e1146105835780636fd396d6146105985780637065cb48146105c9578063709cd849146105fc57806370a082311461061157610246565b806328c23a45116101c75780633325889b1161018b5780633325889b146104c857806339148c53146104dd578063423f6cef146104f257806342842e0e1461052b578063490203a71461056e57610246565b806328c23a45146104295780632ab4d052146104405780632d38bf7a146104555780632f54bf6e1461046a578063313ce5671461049d57610246565b806318160ddd1161020e57806318160ddd14610392578063192ded39146103a757806323b872dd146103bc57806323d01c29146103ff578063257aeacc1461041457610246565b806301ffc9a71461024b57806306fdde0314610293578063095ea7b31461031d578063163aa00d1461035657806317da485f1461037d575b600080fd5b34801561025757600080fd5b5061027f6004803603602081101561026e57600080fd5b50356001600160e01b0319166109ea565b604080519115158252519081900360200190f35b34801561029f57600080fd5b506102a8610a09565b6040805160208082528351818301528351919283929083019185019080838360005b838110156102e25781810151838201526020016102ca565b50505050905090810190601f16801561030f5780820380516001836020036101000a031916815260200191505b509250505060405180910390f35b34801561032957600080fd5b5061027f6004803603604081101561034057600080fd5b506001600160a01b038135169060200135610a97565b34801561036257600080fd5b5061036b610aae565b60408051918252519081900360200190f35b34801561038957600080fd5b5061036b610ab4565b34801561039e57600080fd5b5061036b610ad2565b3480156103b357600080fd5b5061027f610ad8565b3480156103c857600080fd5b5061027f600480360360608110156103df57600080fd5b506001600160a01b03813581169160208101359091169060400135610ae1565b34801561040b57600080fd5b5061036b610b38565b34801561042057600080fd5b5061036b610b3e565b34801561043557600080fd5b5061043e610b44565b005b34801561044c57600080fd5b5061036b610b4f565b34801561046157600080fd5b5061036b610b55565b34801561047657600080fd5b5061027f6004803603602081101561048d57600080fd5b50356001600160a01b0316610b5b565b3480156104a957600080fd5b506104b2610b6e565b6040805160ff9092168252519081900360200190f35b3480156104d457600080fd5b5061043e610b7c565b3480156104e957600080fd5b5061036b610c00565b3480156104fe57600080fd5b5061043e6004803603604081101561051557600080fd5b506001600160a01b038135169060200135610c06565b34801561053757600080fd5b5061043e6004803603606081101561054e57600080fd5b506001600160a01b03813581169160208101359091169060400135610c24565b34801561057a57600080fd5b5061036b610c44565b34801561058f57600080fd5b5061036b610c76565b3480156105a457600080fd5b506105ad610c7c565b604080516001600160a01b039092168252519081900360200190f35b3480156105d557600080fd5b5061043e600480360360208110156105ec57600080fd5b50356001600160a01b0316610c8b565b34801561060857600080fd5b5061043e610cdb565b34801561061d57600080fd5b5061036b6004803603602081101561063457600080fd5b50356001600160a01b0316610d63565b34801561065057600080fd5b5061036b610d7e565b34801561066557600080fd5b5061036b600480360360a081101561067c57600080fd5b5080359060208101359060408101359060608101359060800135610d84565b3480156106a757600080fd5b5061036b61144f565b3480156106bc57600080fd5b5061036b611455565b3480156106d157600080fd5b506102a861145b565b3480156106e657600080fd5b5061027f600480360360208110156106fd57600080fd5b50356114b6565b34801561071057600080fd5b5061027f6004803603604081101561072757600080fd5b506001600160a01b0381351690602001356115ea565b34801561074957600080fd5b5061036b6115f7565b34801561075e57600080fd5b506107676115fd565b6040518082606080838360005b8381101561078c578181015183820152602001610774565b5050505090500191505060405180910390f35b3480156107ab57600080fd5b5061043e600480360360808110156107c257600080fd5b6001600160a01b038235811692602081013590911691604082013591908101906080810160608201356401000000008111156107fd57600080fd5b82018360208201111561080f57600080fd5b8035906020019184600183028401116401000000008311171561083157600080fd5b91908080601f01602080910402602001604051908101604052809392919081815260200183838082843760009201919091525092955061162b945050505050565b34801561087e57600080fd5b5061036b611684565b34801561089357600080fd5b5061036b61168a565b3480156108a857600080fd5b5061036b611690565b3480156108bd57600080fd5b5061036b600480360360408110156108d457600080fd5b506001600160a01b0381358116916020013516611696565b3480156108f857600080fd5b5061043e6004803603606081101561090f57600080fd5b50803590602081013590604001356116c1565b34801561092e57600080fd5b5061043e6004803603606081101561094557600080fd5b6001600160a01b038235169160208101359181019060608101604082013564010000000081111561097557600080fd5b82018360208201111561098757600080fd5b803590602001918460018302840111640100000000831117156109a957600080fd5b91908080601f016020809104026020016040519081016040528093929190818152602001838380828437600092019190915250929550611713945050505050565b6001600160e01b03191660009081526020819052604090205460ff1690565b6006805460408051602060026001851615610100026000190190941693909304601f81018490048402820184019092528181529291830182828015610a8f5780601f10610a6457610100808354040283529160200191610a8f565b820191906000526020600020905b815481529060010190602001808311610a7257829003601f168201915b505050505081565b6000610aa4338484611765565b5060015b92915050565b60125481565b6000610acd600d5460155461185190919063ffffffff16565b905090565b60035490565b60165460ff1690565b6000610aee84848461189a565b6001600160a01b038416600090815260026020908152604080832033808552925290912054610b2e918691610b29908663ffffffff6119de16565b611765565b5060019392505050565b600d5490565b600e5481565b610b4d33611a20565b565b600c5481565b600a5481565b6000610aa860048363ffffffff611a6816565b600754610100900460ff1681565b610b8533610b5b565b610bc05760405162461bcd60e51b815260040180806020018281038252602e81526020018061293c602e913960400191505060405180910390fd5b6016805460ff19169055604080516000815290517f57f4ea62a3f3b7e9492e7316797c3b27a4eebf2326e5c037f19a66e2e73d987d9181900360200190a1565b600d5481565b610c20828260405180602001604052806000815250611713565b5050565b610c3f8383836040518060200160405280600081525061162b565b505050565b6000610acd600a5460020a600760019054906101000a900460ff1660ff16600a0a60320261185190919063ffffffff16565b600b5481565b6010546001600160a01b031681565b610c9433610b5b565b610ccf5760405162461bcd60e51b815260040180806020018281038252602e81526020018061293c602e913960400191505060405180910390fd5b610cd881611acf565b50565b610ce433610b5b565b610d1f5760405162461bcd60e51b815260040180806020018281038252602e81526020018061293c602e913960400191505060405180910390fd5b6016805460ff1916600190811790915560408051918252517f57f4ea62a3f3b7e9492e7316797c3b27a4eebf2326e5c037f19a66e2e73d987d9181900360200190a1565b6001600160a01b031660009081526001602052604090205490565b60085481565b6000606084604051908082528060200260200182016040528015610db2578160200160208202803883390190505b506040805160006020808301919091528183018a905260608083018c9052835180840390910181526080909201928390528151939450600193600293918291908401908083835b60208310610e185780518252601f199092019160209182019101610df9565b51815160209384036101000a60001901801990921691161790526040519190930194509192505080830381855afa158015610e57573d6000803e3d6000fd5b5050506040513d6020811015610e6c57600080fd5b505182518390600090610e7b57fe5b602090810291909101015260015b86811015610f7d57600282806001019350846001840381518110610ea957fe5b602002602001015160405160200180838152602001828152602001925050506040516020818303038152906040526040518082805190602001908083835b60208310610f065780518252601f199092019160209182019101610ee7565b51815160209384036101000a60001901801990921691161790526040519190930194509192505080830381855afa158015610f45573d6000803e3d6000fd5b5050506040513d6020811015610f5a57600080fd5b50518351849083908110610f6a57fe5b6020908102919091010152600101610e89565b5060005b858110156114275760005b8781101561141e57801561108557600283806001019450856001840381518110610fb257fe5b6020026020010151868481518110610fc657fe5b60200260200101516040516020018084815260200183815260200182815260200193505050506040516020818303038152906040526040518082805190602001908083835b6020831061102a5780518252601f19909201916020918201910161100b565b51815160209384036101000a60001901801990921691161790526040519190930194509192505080830381855afa158015611069573d6000803e3d6000fd5b5050506040513d602081101561107e57600080fd5b505161116d565b6002838060010194508560018b038151811061109d57fe5b6020026020010151866000815181106110b257fe5b60200260200101516040516020018084815260200183815260200182815260200193505050506040516020818303038152906040526040518082805190602001908083835b602083106111165780518252601f1990920191602091820191016110f7565b51815160209384036101000a60001901801990921691161790526040519190930194509192505080830381855afa158015611155573d6000803e3d6000fd5b5050506040513d602081101561116a57600080fd5b50515b84828151811061117957fe5b602090810291909101015260005b86811015611415576000896002868060010197508d60028888886040516020018084815260200183815260200182815260200193505050506040516020818303038152906040526040518082805190602001908083835b602083106111fd5780518252601f1990920191602091820191016111de565b51815160209384036101000a60001901801990921691161790526040519190930194509192505080830381855afa15801561123c573d6000803e3d6000fd5b5050506040513d602081101561125157600080fd5b5051604080516020818101959095528082019390935260608084019290925280518084039092018252608090920191829052805190928291908401908083835b602083106112b05780518252601f199092019160209182019101611291565b51815160209384036101000a60001901801990921691161790526040519190930194509192505080830381855afa1580156112ef573d6000803e3d6000fd5b5050506040513d602081101561130457600080fd5b50518161130d57fe5b06905060028580600101965087858151811061132557fe5b602002602001015188848151811061133957fe5b60200260200101516040516020018084815260200183815260200182815260200193505050506040516020818303038152906040526040518082805190602001908083835b6020831061139d5780518252601f19909201916020918201910161137e565b51815160209384036101000a60001901801990921691161790526040519190930194509192505080830381855afa1580156113dc573d6000803e3d6000fd5b5050506040513d60208110156113f157600080fd5b5051865187908590811061140157fe5b602090810291909101015250600101611187565b50600101610f8c565b50600101610f81565b5081600187038151811061143757fe5b602002602001015160001c9250505095945050505050565b600e5490565b60155481565b6005805460408051602060026001851615610100026000190190941693909304601f81018490048402820184019092528181529291830182828015610a8f5780601f10610a6457610100808354040283529160200191610a8f565b601654600090819060ff16156114df576114d883601754601854601954611b17565b9050611518565b50600e54604080516020808201939093523360601b81830152605480820186905282518083039091018152607490910190915280519101205b600d5481111561152757600080fd5b600e546000908152600f60205260409020805490829055801561154957600080fd5b6000611553610c44565b905061155f338261220e565b600b5461156a610ad2565b111561157257fe5b601080546001600160a01b03191633179055601181905543601255611595612300565b600854600e54604080518481526020810193909352828101919091525133917fcf6fbb9dcea7d07263ab4f5c3a92f53af33dffc421d9d121e1c74b307e68189d919081900360600190a2506001949350505050565b6000610aa433848461189a565b60135481565b6116056128ac565b604051806060016040528060175481526020016018548152602001601954815250905090565b611636848484610ae1565b50611643848484846123bc565b61167e5760405162461bcd60e51b815260040180806020018281038252602e8152602001806128ec602e913960400191505060405180910390fd5b50505050565b60115481565b60095481565b60145481565b6001600160a01b03918216600090815260026020908152604080832093909416825291909152205490565b6116ca33610b5b565b6117055760405162461bcd60e51b815260040180806020018281038252602e81526020018061293c602e913960400191505060405180910390fd5b601792909255601855601955565b61171d83836115ea565b5061172a338484846123bc565b610c3f5760405162461bcd60e51b815260040180806020018281038252602e8152602001806128ec602e913960400191505060405180910390fd5b6001600160a01b0383166117aa5760405162461bcd60e51b81526004018080602001828103825260238152602001806129f26023913960400191505060405180910390fd5b6001600160a01b0382166117ef5760405162461bcd60e51b81526004018080602001828103825260218152602001806128cb6021913960400191505060405180910390fd5b6001600160a01b03808416600081815260026020908152604080832094871680845294825291829020859055815185815291517f8c5be1e5ebec7d5bd14f71427d1e84f3dd0314c0f7b2291e5b200ac8c7c3b9259281900390910190a3505050565b600061189383836040518060400160405280601a81526020017f536166654d6174683a206469766973696f6e206279207a65726f0000000000008152506124ef565b9392505050565b6001600160a01b0383166118df5760405162461bcd60e51b815260040180806020018281038252602481526020018061298b6024913960400191505060405180910390fd5b6001600160a01b0382166119245760405162461bcd60e51b815260040180806020018281038252602281526020018061291a6022913960400191505060405180910390fd5b6001600160a01b03831660009081526001602052604090205461194d908263ffffffff6119de16565b6001600160a01b038085166000908152600160205260408082209390935590841681522054611982908263ffffffff61259116565b6001600160a01b0380841660008181526001602090815260409182902094909455805185815290519193928716927fddf252ad1be2c89b69c2b068fc378daa952ba7f163c4a11628f55a4df523b3ef92918290030190a3505050565b600061189383836040518060400160405280601e81526020017f536166654d6174683a207375627472616374696f6e206f766572666c6f7700008152506125eb565b611a3160048263ffffffff61264516565b6040516001600160a01b038216907f58619076adf5bb0943d100ef88d52d7c3fd691b19d3a9071b555b651fbf418da90600090a250565b60006001600160a01b038216611aaf5760405162461bcd60e51b81526004018080602001828103825260228152602001806129d06022913960400191505060405180910390fd5b506001600160a01b03166000908152602091909152604090205460ff1690565b611ae060048263ffffffff6126ac16565b6040516001600160a01b038216907f994a936646fe87ffe4f1e469d3d6aa417d6b855598397f323de5b449f765f0c390600090a250565b6000606084604051908082528060200260200182016040528015611b45578160200160208202803883390190505b50600e546040805160006020808301919091528183019390935233606090811b9082015260748082018b90528251808303909101815260949091019182905280519394506001936002939192918291908401908083835b60208310611bbb5780518252601f199092019160209182019101611b9c565b51815160209384036101000a60001901801990921691161790526040519190930194509192505080830381855afa158015611bfa573d6000803e3d6000fd5b5050506040513d6020811015611c0f57600080fd5b505182518390600090611c1e57fe5b602090810291909101015260015b86811015611d2057600282806001019350846001840381518110611c4c57fe5b602002602001015160405160200180838152602001828152602001925050506040516020818303038152906040526040518082805190602001908083835b60208310611ca95780518252601f199092019160209182019101611c8a565b51815160209384036101000a60001901801990921691161790526040519190930194509192505080830381855afa158015611ce8573d6000803e3d6000fd5b5050506040513d6020811015611cfd57600080fd5b50518351849083908110611d0d57fe5b6020908102919091010152600101611c2c565b5060005b858110156121e95760005b878110156121e0578015611e2857600283806001019450856001840381518110611d5557fe5b6020026020010151868481518110611d6957fe5b60200260200101516040516020018084815260200183815260200182815260200193505050506040516020818303038152906040526040518082805190602001908083835b60208310611dcd5780518252601f199092019160209182019101611dae565b51815160209384036101000a60001901801990921691161790526040519190930194509192505080830381855afa158015611e0c573d6000803e3d6000fd5b5050506040513d6020811015611e2157600080fd5b5051611f10565b6002838060010194508560018b0381518110611e4057fe5b602002602001015186600081518110611e5557fe5b60200260200101516040516020018084815260200183815260200182815260200193505050506040516020818303038152906040526040518082805190602001908083835b60208310611eb95780518252601f199092019160209182019101611e9a565b51815160209384036101000a60001901801990921691161790526040519190930194509192505080830381855afa158015611ef8573d6000803e3d6000fd5b5050506040513d6020811015611f0d57600080fd5b50515b848281518110611f1c57fe5b602090810291909101015260005b868110156121d757600089600286806001019750600e543360028989896040516020018084815260200183815260200182815260200193505050506040516020818303038152906040526040518082805190602001908083835b60208310611fa35780518252601f199092019160209182019101611f84565b51815160209384036101000a60001901801990921691161790526040519190930194509192505080830381855afa158015611fe2573d6000803e3d6000fd5b5050506040513d6020811015611ff757600080fd5b505160408051602081810196909652808201949094526bffffffffffffffffffffffff19606093841b16928401929092526074808401919091528151808403909101815260949092019081905281519192909182918401908083835b602083106120725780518252601f199092019160209182019101612053565b51815160209384036101000a60001901801990921691161790526040519190930194509192505080830381855afa1580156120b1573d6000803e3d6000fd5b5050506040513d60208110156120c657600080fd5b5051816120cf57fe5b0690506002858060010196508785815181106120e757fe5b60200260200101518884815181106120fb57fe5b60200260200101516040516020018084815260200183815260200182815260200193505050506040516020818303038152906040526040518082805190602001908083835b6020831061215f5780518252601f199092019160209182019101612140565b51815160209384036101000a60001901801990921691161790526040519190930194509192505080830381855afa15801561219e573d6000803e3d6000fd5b5050506040513d60208110156121b357600080fd5b505186518790859081106121c357fe5b602090810291909101015250600101611f2a565b50600101611d2f565b50600101611d24565b508160018703815181106121f957fe5b6020026020010151925050505b949350505050565b6001600160a01b038216612269576040805162461bcd60e51b815260206004820152601e60248201527f4b4950373a206d696e7420746f20746865207a65726f20616464726573730000604482015290519081900360640190fd5b60035461227c908263ffffffff61259116565b6003556001600160a01b0382166000908152600160205260409020546122a8908263ffffffff61259116565b6001600160a01b03831660008181526001602090815260408083209490945583518581529351929391927fddf252ad1be2c89b69c2b068fc378daa952ba7f163c4a11628f55a4df523b3ef9281900390910190a35050565b600b5461232261230e610c44565b612316610ad2565b9063ffffffff61259116565b11801561233157506027600a54105b1561234e57600a5461234a90600163ffffffff61259116565b600a555b61237d61236e600a5460010160020a600c5461185190919063ffffffff16565b600c549063ffffffff6119de16565b600b5560085461239490600163ffffffff61259116565b600881905560135490816123a457fe5b066123b1576123b161272d565b600019430140600e55565b60006123d0846001600160a01b031661284d565b6123dc57506001612206565b604051634e8c461160e11b815233600482018181526001600160a01b03888116602485015260448401879052608060648501908152865160848601528651600095928a1694639d188c229490938c938b938b939260a4019060208501908083838e5b8381101561245657818101518382015260200161243e565b50505050905090810190601f1680156124835780820380516001836020036101000a031916815260200191505b5095505050505050602060405180830381600087803b1580156124a557600080fd5b505af11580156124b9573d6000803e3d6000fd5b505050506040513d60208110156124cf57600080fd5b50516001600160e01b031916634e8c461160e11b14915050949350505050565b6000818361257b5760405162461bcd60e51b81526004018080602001828103825283818151815260200191508051906020019080838360005b83811015612540578181015183820152602001612528565b50505050905090810190601f16801561256d5780820380516001836020036101000a031916815260200191505b509250505060405180910390fd5b50600083858161258757fe5b0495945050505050565b600082820183811015611893576040805162461bcd60e51b815260206004820152601b60248201527f536166654d6174683a206164646974696f6e206f766572666c6f770000000000604482015290519081900360640190fd5b6000818484111561263d5760405162461bcd60e51b8152602060048201818152835160248401528351909283926044909101919085019080838360008315612540578181015183820152602001612528565b505050900390565b61264f8282611a68565b61268a5760405162461bcd60e51b815260040180806020018281038252602181526020018061296a6021913960400191505060405180910390fd5b6001600160a01b0316600090815260209190915260409020805460ff19169055565b6126b68282611a68565b15612708576040805162461bcd60e51b815260206004820152601f60248201527f526f6c65733a206163636f756e7420616c72656164792068617320726f6c6500604482015290519081900360640190fd5b6001600160a01b0316600090815260209190915260409020805460ff19166001179055565b60095460135443919091039061025802600061276061275383600263ffffffff61185116565b839063ffffffff61259116565b9050600061278561277884600463ffffffff61185116565b849063ffffffff6119de16565b9050828411156127c7576127c06127b360086127a7878763ffffffff6119de16565b9063ffffffff61185116565b849063ffffffff61259116565b93506127e2565b6127df61277860086127a7868863ffffffff6119de16565b93505b808410156127f2578093506127fe565b818411156127fe578193505b612817836127a786600d5461285390919063ffffffff16565b600d819055601454111561283057601454600d55612843565b601554600d54111561284357601554600d555b5050436009555050565b3b151590565b60008261286257506000610aa8565b8282028284828161286f57fe5b04146118935760405162461bcd60e51b81526004018080602001828103825260218152602001806129af6021913960400191505060405180910390fd5b6040518060600160405280600390602082028038833950919291505056fe4b4950373a20617070726f766520746f20746865207a65726f20616464726573734b4950373a207472616e7366657220746f206e6f6e204b495037526563656976657220696d706c656d656e7465724b4950373a207472616e7366657220746f20746865207a65726f20616464726573734f776e6572526f6c653a2063616c6c657220646f6573206e6f74206861766520746865204f776e657220726f6c65526f6c65733a206163636f756e7420646f6573206e6f74206861766520726f6c654b4950373a207472616e736665722066726f6d20746865207a65726f2061646472657373536166654d6174683a206d756c7469706c69636174696f6e206f766572666c6f77526f6c65733a206163636f756e7420697320746865207a65726f20616464726573734b4950373a20617070726f76652066726f6d20746865207a65726f2061646472657373a265627a7a72315820448c3f82cf29018e8054a1e5ef27aa24840696198b52c830947f3c60416944bc64736f6c63430005110032526f6c65733a206163636f756e7420697320746865207a65726f2061646472657373",
	"source": "// Copyright (c) 2022 John Weligon\n// Forked from code by 0xBitcoin.\n// Distributed under the MIT software license, see the accompanying\n// file COPYING or http://www.opensource.org/licenses/mit-license.php.\n\npragma solidity ^0.5.0;\n\nimport \"./KIP7.sol\";\nimport \"./OwnerRole.sol\";\nimport \"./KIP13.sol\";\n\n/**\n * @dev Extension of `KIP7` that adds a set of accounts with the `OwnerRole`,\n * which have permission to mint (create) new tokens as they see fit.\n *\n * At construction, the deployer of the contract is the only minter.\n *\n * See http://kips.klaytn.com/KIPs/kip-7-fungible_token\n */\ncontract SigmoidToken is KIP13, KIP7, OwnerRole {\n    using SafeMath for uint256;\n    using Address for address;\n    /*\n     *     bytes4(keccak256('mint(address,uint256)')) == 0x40c10f19\n     *     bytes4(keccak256('isOwner(address)')) == 0xaa271e1a\n     *     bytes4(keccak256('addOwner(address)')) == 0x983b2d56\n     *     bytes4(keccak256('renounceOwner()')) == 0x98650275\n     *\n     *     => 0x40c10f19 ^ 0xaa271e1a ^ 0x983b2d56 ^ 0x98650275 == 0xeab83e20\n     */\n    bytes4 private constant _INTERFACE_ID_KIP7MINTABLE = 0xeab83e20;\n\n    // Token symbol name\n    string public symbol;\n    string public name;\n\n    // lock initialization\n    bool locked = false;\n    \n    uint8 public decimals;\n\n    uint public epochCount;             // number of 'blocks' mined\n    uint public latestDifficultyPeriodStarted;\n    uint public rewardEra;              // era for halving reward\n    uint public maxSupplyForEra;        // maximum supply that can be minted in current era\n    uint public maxTotalSupply;         // total maximum supply that can be minted\n\n    uint public currentTarget;          // hash should be lower than this\n    bytes32 public previousBlockHash;   // recent Klaytn block hash. used to prevent pre-hashing\n    // nonces already used for minting. prevents mining with the same answer\n    mapping(bytes32 => bytes32) solutionForChallenge;\n\n    // for checking\n    address public lastRewardTo;\n    uint public lastRewardAmount;\n    uint public lastRewardEthBlockNumber;\n\n    // parameters for difficulty adjustment\n    uint public _BLOCKS_PER_READJUSTMENT = 64;    // difficulty re-adjustment 'block' interval\n    uint public _MINIMUM_TARGET = 2 ** 16;\n    uint public _MAXIMUM_TARGET = 2 ** 234;\n\n    // parameters for balloon hashing\n    bool private is_balloon = true;\n    uint private _S_COST = 256;   // make a 8kb scratchpad\n    uint private _T_COST = 3;\n    uint private _DELTA = 3;\n\n    event Mint(address indexed from, uint reward_amount, uint epochCount, bytes32 newBlockHash);\n    event Switch(bool is_balloon);\n\n    constructor () public {\n        // register the supported interfaces to conform to KIP7 via KIP13\n        _registerInterface(_INTERFACE_ID_KIP7MINTABLE);\n\n        symbol = \"SIG\";\n        name = \"Sigmoid Token\";\n\n        decimals = 8;\n        maxTotalSupply = 21000000 * (10 ** uint(decimals));\n\n        if(locked) revert();\n        locked = true;\n\n        epochCount = 1;\n        latestDifficultyPeriodStarted = block.number;\n        rewardEra = 0;\n        maxSupplyForEra = maxTotalSupply.div(2);\n\n        currentTarget = _MAXIMUM_TARGET;\n        previousBlockHash = blockhash(block.number - 1);\n    }\n\n    // if hashing takes too much gas or hashing is way too easy, this function will be used\n    function _fixHashingComplexity(uint s_cost, uint t_cost, uint delta) public onlyOwner {\n        _S_COST = s_cost;\n        _T_COST = t_cost;\n        _DELTA = delta;\n    }\n\n    // if hashing takes WAY too much gas, give up balloon hashing\n    function _giveupBalloonHashing() public onlyOwner {\n        is_balloon = false;\n        emit Switch(false);\n    }\n\n    // retry using balloon hashing\n    function _retryBalloonHashing() public onlyOwner {\n        is_balloon = true;\n        emit Switch(true);\n    }\n\n    function mint(uint256 nonce) public returns (bool) {\n        //the PoW must contain work that includes a recent Klaytn block hash and the msg.sender's address to prevent MITM attacks\n        bytes32 digest;\n        if (is_balloon) {\n            digest = _balloon_hash(nonce, _S_COST, _T_COST, _DELTA);\n        } else {\n            digest = keccak256(abi.encodePacked(previousBlockHash, msg.sender, nonce));\n        }\n\n        //the digest must be smaller than the target\n        if(uint256(digest) > currentTarget) revert();\n\n        //only allow one reward for each challenge\n        bytes32 solution = solutionForChallenge[previousBlockHash];\n        solutionForChallenge[previousBlockHash] = digest;\n        if(solution != 0x0) revert();  //prevent the same answer from awarding twice\n\n        // rewarding\n        uint reward_amount = getMiningReward();\n        _mint(msg.sender, reward_amount);\n\n        // cannot mint more tokens than the assigned amount to the current era\n        assert(totalSupply() <= maxSupplyForEra);\n\n        //set readonly diagnostics data\n        lastRewardTo = msg.sender;\n        lastRewardAmount = reward_amount;\n        lastRewardEthBlockNumber = block.number;\n\n        _startNewMiningEpoch();\n        emit Mint(msg.sender, reward_amount, epochCount, previousBlockHash);\n        return true;\n    }\n\n    // Sigmoid: Balloon hashing.\n    function _balloon_hash(uint256 nonce, uint s_cost, uint t_cost, uint delta) internal returns (bytes32 digest) {\n        bytes32[] memory buf = new bytes32[](s_cost);\n        uint cnt = 0;\n\n        // Step 1. Expand input into buffer.\n        buf[0] = sha256(abi.encodePacked(cnt++, previousBlockHash, msg.sender, nonce));\n        for (uint m = 1; m < s_cost; m++) {\n            buf[m] = sha256(abi.encodePacked(cnt++, buf[m - 1]));\n        }\n\n        // Step 2. Mix buffer contents.\n        for (uint t = 0; t < t_cost; t++) {\n            for (uint m = 0; m < s_cost; m++) {\n                // Step 2a. Hash last and current blocks.\n                buf[m] = (m == 0) ? sha256(abi.encodePacked(cnt++, buf[s_cost - 1], buf[0])) : sha256(abi.encodePacked(cnt++, buf[m - 1], buf[m]));\n\n                // Step 2b. Hash in pseudorandomly chosen blocks.\n                for (uint i = 0; i < delta; i++) {\n                    uint other = uint256(sha256(abi.encodePacked(cnt++, previousBlockHash, msg.sender, sha256(abi.encodePacked(t, m, i))))) % s_cost; // in \"big\" order\n                    buf[m] = sha256(abi.encodePacked(cnt++, buf[m], buf[other]));\n                }\n            }\n        }\n\n        // Step 3. Extract output from buffer.\n        return buf[s_cost - 1];\n    }\n\n    function _startNewMiningEpoch() internal{\n        // if max supply for the era will be exceeded next reward round, then enter the new era before that happens\n        // 40 is the final reward era, almost all tokens minted\n        // once the final era is reached, more tokens will not be given out because the assert function\n        if(totalSupply().add(getMiningReward()) > maxSupplyForEra && rewardEra < 39)\n            rewardEra = rewardEra.add(1);\n\n        // set the next minted supply at which the era will change\n        // total supply is 2100000000000000  because of 8 decimal places\n        maxSupplyForEra = maxTotalSupply.sub(maxTotalSupply.div(2 ** (rewardEra + 1)));\n        epochCount = epochCount.add(1);\n\n        // re-adjust difficulty when the time comes\n        if(epochCount % _BLOCKS_PER_READJUSTMENT == 0) _reAdjustDifficulty();\n\n        // make the latest Klaytn block hash a part of the next challenge for PoW to prevent pre-mining future blocks\n        // do this last since this is a protection mechanism in the mint() function\n        previousBlockHash = blockhash(block.number - 1);\n    }\n\n    function _reAdjustDifficulty() internal {\n        // Digishield implementation. Dogecoin version.\n        // Klaytn: 1 block generation per second\n        // Sigmoid: 1 minting per 10 minute\n        uint modulatedTimespan = block.number - latestDifficultyPeriodStarted;\n        uint retargetTimespan = _BLOCKS_PER_READJUSTMENT * 600;\n        uint maxTimespan = retargetTimespan.add(retargetTimespan.div(2));\n        uint minTimespan = retargetTimespan.sub(retargetTimespan.div(4));\n\n        if (modulatedTimespan > retargetTimespan) {\n            modulatedTimespan = retargetTimespan.add((modulatedTimespan.sub(retargetTimespan)).div(8));\n        } else {\n            modulatedTimespan = retargetTimespan.sub((retargetTimespan.sub(modulatedTimespan)).div(8));\n        }\n\n        // limit adjustment step\n        if (modulatedTimespan < minTimespan) {\n            modulatedTimespan = minTimespan;\n        } else if (modulatedTimespan > maxTimespan) {\n            modulatedTimespan = maxTimespan;\n        }\n\n        // retarget\n        currentTarget = (currentTarget.mul(modulatedTimespan)).div(retargetTimespan);\n        if (currentTarget < _MINIMUM_TARGET) {\n            currentTarget = _MINIMUM_TARGET;\n        } else if (currentTarget > _MAXIMUM_TARGET) {\n            currentTarget = _MAXIMUM_TARGET;\n        }\n\n        latestDifficultyPeriodStarted = block.number;\n    }\n\n    // 21M coins total\n    // reward begins at 50 and is cut in half every reward era (as tokens are mined)\n    function getMiningReward() public view returns (uint) {\n        //once we get half way thru the coins, only get 25 per block\n        //every reward era, the reward amount halves.\n        return (50 * (10 ** uint(decimals))).div(2**rewardEra) ;\n    }\n\n    // this is a recent Klaytn block hash, used to prevent pre-mining future blocks\n    function getPreviousBlockHash() public view returns (bytes32) {return previousBlockHash;}\n\n    // the number of zeroes the digest of the PoW solution requires. Auto adjusts\n    function getMiningDifficulty() public view returns (uint) {return _MAXIMUM_TARGET.div(currentTarget);}\n\n    function getCurrentTarget() public view returns (uint) {return currentTarget;}\n    \n    function getHashingParameters() public view returns (uint[3] memory) {return [_S_COST, _T_COST, _DELTA];}\n\n    function isBalloon() public view returns (bool) {return is_balloon;}\n\n    // Don't accept native asset\n    function () external payable {revert();}\n\n    // --------------------------------------\n    // For Debugging\n    // --------------------------------------\n\n    function getMintDigest(uint256 nonce, uint256 salt, uint s_cost, uint t_cost, uint delta) public view returns (uint) {\n        bytes32[] memory buf = new bytes32[](s_cost);\n        uint cnt = 0;\n\n        // Step 1. Expand input into buffer.\n        buf[0] = sha256(abi.encodePacked(cnt++, salt, nonce));\n        for (uint m = 1; m < s_cost; m++) {\n            buf[m] = sha256(abi.encodePacked(cnt++, buf[m - 1]));\n        }\n\n        // Step 2. Mix buffer contents.\n        for (uint t = 0; t < t_cost; t++) {\n            for (uint m = 0; m < s_cost; m++) {\n                // Step 2a. Hash last and current blocks.\n                buf[m] = (m == 0) ? sha256(abi.encodePacked(cnt++, buf[s_cost - 1], buf[0])) : sha256(abi.encodePacked(cnt++, buf[m - 1], buf[m]));\n\n                // Step 2b. Hash in pseudorandomly chosen blocks.\n                for (uint i = 0; i < delta; i++) {\n                    uint other = uint256(sha256(abi.encodePacked(cnt++, salt, sha256(abi.encodePacked(t, m, i))))) % s_cost; // in \"big\" order\n                    buf[m] = sha256(abi.encodePacked(cnt++, buf[m], buf[other]));\n                }\n            }\n        }\n\n        // Step 3. Extract output from buffer.\n        return uint256(buf[s_cost - 1]);\n    }\n}\n",
	"sourcePath": "/home/jinwoolim/sigmoid-token/contracts/SigmoidToken.sol",
	"compiler": {
		"name": "solc",
		"version": "0.5.17+commit.d19bba13.Emscripten.clang"
	},
	"schemaVersion": "3.1.0",
	"updatedAt": "2022-03-05T18:00:56.034Z",
	"devdoc": {
		"details": "Extension of `KIP7` that adds a set of accounts with the `OwnerRole`, which have permission to mint (create) new tokens as they see fit. * At construction, the deployer of the contract is the only minter. * See http://kips.klaytn.com/KIPs/kip-7-fungible_token",
		"methods": {
			"allowance(address,address)": {
				"details": "See `IKIP7.allowance`."
			},
			"approve(address,uint256)": {
				"details": "See `IKIP7.approve`.     * Requirements:     * - `spender` cannot be the zero address."
			},
			"balanceOf(address)": {
				"details": "See `IKIP7.balanceOf`."
			},
			"safeTransfer(address,uint256)": {
				"details": "Moves `amount` tokens from the caller's account to `recipient`."
			},
			"safeTransfer(address,uint256,bytes)": {
				"details": "Moves `amount` tokens from the caller's account to `recipient`."
			},
			"safeTransferFrom(address,address,uint256)": {
				"details": "Moves `amount` tokens from `sender` to `recipient` using the allowance mechanism. `amount` is then deducted from the caller's allowance."
			},
			"safeTransferFrom(address,address,uint256,bytes)": {
				"details": "Moves `amount` tokens from `sender` to `recipient` using the allowance mechanism. `amount` is then deducted from the caller's allowance."
			},
			"supportsInterface(bytes4)": {
				"details": "See `IKIP13.supportsInterface`.     * Time complexity O(1), guaranteed to always use less than 30 000 gas."
			},
			"totalSupply()": {
				"details": "See `IKIP7.totalSupply`."
			},
			"transfer(address,uint256)": {
				"details": "See `IKIP7.transfer`.     * Requirements:     * - `recipient` cannot be the zero address. - the caller must have a balance of at least `amount`."
			},
			"transferFrom(address,address,uint256)": {
				"details": "See `IKIP7.transferFrom`.     * Emits an `Approval` event indicating the updated allowance. This is not required by the KIP. See the note at the beginning of `KIP7`;     * Requirements: - `sender` and `recipient` cannot be the zero address. - `sender` must have a balance of at least `value`. - the caller must have allowance for `sender`'s tokens of at least `amount`."
			}
		}
	},
	"userdoc": {
		"methods": {}
	}
}