{
  "contractName": "SigmoidTokenMock",
  "abi": [
    {
      "constant": true,
      "inputs": [
        {
          "name": "interfaceId",
          "type": "bytes4"
        }
      ],
      "name": "supportsInterface",
      "outputs": [
        {
          "name": "",
          "type": "bool"
        }
      ],
      "payable": false,
      "stateMutability": "view",
      "type": "function"
    },
    {
      "constant": true,
      "inputs": [],
      "name": "name",
      "outputs": [
        {
          "name": "",
          "type": "string"
        }
      ],
      "payable": false,
      "stateMutability": "view",
      "type": "function"
    },
    {
      "constant": false,
      "inputs": [
        {
          "name": "spender",
          "type": "address"
        },
        {
          "name": "value",
          "type": "uint256"
        }
      ],
      "name": "approve",
      "outputs": [
        {
          "name": "",
          "type": "bool"
        }
      ],
      "payable": false,
      "stateMutability": "nonpayable",
      "type": "function"
    },
    {
      "constant": true,
      "inputs": [],
      "name": "lastRewardEthBlockNumber",
      "outputs": [
        {
          "name": "",
          "type": "uint256"
        }
      ],
      "payable": false,
      "stateMutability": "view",
      "type": "function"
    },
    {
      "constant": true,
      "inputs": [],
      "name": "totalSupply",
      "outputs": [
        {
          "name": "",
          "type": "uint256"
        }
      ],
      "payable": false,
      "stateMutability": "view",
      "type": "function"
    },
    {
      "constant": false,
      "inputs": [
        {
          "name": "sender",
          "type": "address"
        },
        {
          "name": "recipient",
          "type": "address"
        },
        {
          "name": "amount",
          "type": "uint256"
        }
      ],
      "name": "transferFrom",
      "outputs": [
        {
          "name": "",
          "type": "bool"
        }
      ],
      "payable": false,
      "stateMutability": "nonpayable",
      "type": "function"
    },
    {
      "constant": true,
      "inputs": [],
      "name": "previousBlockHash",
      "outputs": [
        {
          "name": "",
          "type": "bytes32"
        }
      ],
      "payable": false,
      "stateMutability": "view",
      "type": "function"
    },
    {
      "constant": false,
      "inputs": [],
      "name": "renounceOwner",
      "outputs": [],
      "payable": false,
      "stateMutability": "nonpayable",
      "type": "function"
    },
    {
      "constant": true,
      "inputs": [],
      "name": "maxTotalSupply",
      "outputs": [
        {
          "name": "",
          "type": "uint256"
        }
      ],
      "payable": false,
      "stateMutability": "view",
      "type": "function"
    },
    {
      "constant": true,
      "inputs": [],
      "name": "rewardEra",
      "outputs": [
        {
          "name": "",
          "type": "uint256"
        }
      ],
      "payable": false,
      "stateMutability": "view",
      "type": "function"
    },
    {
      "constant": true,
      "inputs": [
        {
          "name": "account",
          "type": "address"
        }
      ],
      "name": "isOwner",
      "outputs": [
        {
          "name": "",
          "type": "bool"
        }
      ],
      "payable": false,
      "stateMutability": "view",
      "type": "function"
    },
    {
      "constant": true,
      "inputs": [],
      "name": "decimals",
      "outputs": [
        {
          "name": "",
          "type": "uint8"
        }
      ],
      "payable": false,
      "stateMutability": "view",
      "type": "function"
    },
    {
      "constant": true,
      "inputs": [],
      "name": "currentTarget",
      "outputs": [
        {
          "name": "",
          "type": "uint256"
        }
      ],
      "payable": false,
      "stateMutability": "view",
      "type": "function"
    },
    {
      "constant": false,
      "inputs": [
        {
          "name": "recipient",
          "type": "address"
        },
        {
          "name": "amount",
          "type": "uint256"
        }
      ],
      "name": "safeTransfer",
      "outputs": [],
      "payable": false,
      "stateMutability": "nonpayable",
      "type": "function"
    },
    {
      "constant": false,
      "inputs": [
        {
          "name": "sender",
          "type": "address"
        },
        {
          "name": "recipient",
          "type": "address"
        },
        {
          "name": "amount",
          "type": "uint256"
        }
      ],
      "name": "safeTransferFrom",
      "outputs": [],
      "payable": false,
      "stateMutability": "nonpayable",
      "type": "function"
    },
    {
      "constant": true,
      "inputs": [],
      "name": "maxSupplyForEra",
      "outputs": [
        {
          "name": "",
          "type": "uint256"
        }
      ],
      "payable": false,
      "stateMutability": "view",
      "type": "function"
    },
    {
      "constant": true,
      "inputs": [],
      "name": "lastRewardTo",
      "outputs": [
        {
          "name": "",
          "type": "address"
        }
      ],
      "payable": false,
      "stateMutability": "view",
      "type": "function"
    },
    {
      "constant": false,
      "inputs": [
        {
          "name": "account",
          "type": "address"
        }
      ],
      "name": "addOwner",
      "outputs": [],
      "payable": false,
      "stateMutability": "nonpayable",
      "type": "function"
    },
    {
      "constant": true,
      "inputs": [
        {
          "name": "account",
          "type": "address"
        }
      ],
      "name": "balanceOf",
      "outputs": [
        {
          "name": "",
          "type": "uint256"
        }
      ],
      "payable": false,
      "stateMutability": "view",
      "type": "function"
    },
    {
      "constant": true,
      "inputs": [],
      "name": "epochCount",
      "outputs": [
        {
          "name": "",
          "type": "uint256"
        }
      ],
      "payable": false,
      "stateMutability": "view",
      "type": "function"
    },
    {
      "constant": true,
      "inputs": [],
      "name": "_MAXIMUM_TARGET",
      "outputs": [
        {
          "name": "",
          "type": "uint256"
        }
      ],
      "payable": false,
      "stateMutability": "view",
      "type": "function"
    },
    {
      "constant": true,
      "inputs": [],
      "name": "symbol",
      "outputs": [
        {
          "name": "",
          "type": "string"
        }
      ],
      "payable": false,
      "stateMutability": "view",
      "type": "function"
    },
    {
      "constant": false,
      "inputs": [
        {
          "name": "recipient",
          "type": "address"
        },
        {
          "name": "amount",
          "type": "uint256"
        }
      ],
      "name": "transfer",
      "outputs": [
        {
          "name": "",
          "type": "bool"
        }
      ],
      "payable": false,
      "stateMutability": "nonpayable",
      "type": "function"
    },
    {
      "constant": true,
      "inputs": [],
      "name": "_BLOCKS_PER_READJUSTMENT",
      "outputs": [
        {
          "name": "",
          "type": "uint256"
        }
      ],
      "payable": false,
      "stateMutability": "view",
      "type": "function"
    },
    {
      "constant": false,
      "inputs": [
        {
          "name": "sender",
          "type": "address"
        },
        {
          "name": "recipient",
          "type": "address"
        },
        {
          "name": "amount",
          "type": "uint256"
        },
        {
          "name": "data",
          "type": "bytes"
        }
      ],
      "name": "safeTransferFrom",
      "outputs": [],
      "payable": false,
      "stateMutability": "nonpayable",
      "type": "function"
    },
    {
      "constant": true,
      "inputs": [],
      "name": "lastRewardAmount",
      "outputs": [
        {
          "name": "",
          "type": "uint256"
        }
      ],
      "payable": false,
      "stateMutability": "view",
      "type": "function"
    },
    {
      "constant": true,
      "inputs": [],
      "name": "latestDifficultyPeriodStarted",
      "outputs": [
        {
          "name": "",
          "type": "uint256"
        }
      ],
      "payable": false,
      "stateMutability": "view",
      "type": "function"
    },
    {
      "constant": true,
      "inputs": [],
      "name": "_MINIMUM_TARGET",
      "outputs": [
        {
          "name": "",
          "type": "uint256"
        }
      ],
      "payable": false,
      "stateMutability": "view",
      "type": "function"
    },
    {
      "constant": true,
      "inputs": [
        {
          "name": "owner",
          "type": "address"
        },
        {
          "name": "spender",
          "type": "address"
        }
      ],
      "name": "allowance",
      "outputs": [
        {
          "name": "",
          "type": "uint256"
        }
      ],
      "payable": false,
      "stateMutability": "view",
      "type": "function"
    },
    {
      "constant": false,
      "inputs": [
        {
          "name": "recipient",
          "type": "address"
        },
        {
          "name": "amount",
          "type": "uint256"
        },
        {
          "name": "data",
          "type": "bytes"
        }
      ],
      "name": "safeTransfer",
      "outputs": [],
      "payable": false,
      "stateMutability": "nonpayable",
      "type": "function"
    },
    {
      "inputs": [
        {
          "name": "initialAccount",
          "type": "address"
        },
        {
          "name": "initialBalance",
          "type": "uint256"
        }
      ],
      "payable": false,
      "stateMutability": "nonpayable",
      "type": "constructor"
    },
    {
      "payable": true,
      "stateMutability": "payable",
      "type": "fallback"
    },
    {
      "anonymous": false,
      "inputs": [
        {
          "indexed": true,
          "name": "from",
          "type": "address"
        },
        {
          "indexed": false,
          "name": "reward_amount",
          "type": "uint256"
        },
        {
          "indexed": false,
          "name": "epochCount",
          "type": "uint256"
        },
        {
          "indexed": false,
          "name": "newBlockHash",
          "type": "bytes32"
        }
      ],
      "name": "Mint",
      "type": "event"
    },
    {
      "anonymous": false,
      "inputs": [
        {
          "indexed": false,
          "name": "is_balloon",
          "type": "bool"
        }
      ],
      "name": "Switch",
      "type": "event"
    },
    {
      "anonymous": false,
      "inputs": [
        {
          "indexed": true,
          "name": "account",
          "type": "address"
        }
      ],
      "name": "OwnerAdded",
      "type": "event"
    },
    {
      "anonymous": false,
      "inputs": [
        {
          "indexed": true,
          "name": "account",
          "type": "address"
        }
      ],
      "name": "OwnerRemoved",
      "type": "event"
    },
    {
      "anonymous": false,
      "inputs": [
        {
          "indexed": true,
          "name": "from",
          "type": "address"
        },
        {
          "indexed": true,
          "name": "to",
          "type": "address"
        },
        {
          "indexed": false,
          "name": "value",
          "type": "uint256"
        }
      ],
      "name": "Transfer",
      "type": "event"
    },
    {
      "anonymous": false,
      "inputs": [
        {
          "indexed": true,
          "name": "owner",
          "type": "address"
        },
        {
          "indexed": true,
          "name": "spender",
          "type": "address"
        },
        {
          "indexed": false,
          "name": "value",
          "type": "uint256"
        }
      ],
      "name": "Approval",
      "type": "event"
    },
    {
      "constant": false,
      "inputs": [
        {
          "name": "s_cost",
          "type": "uint256"
        },
        {
          "name": "t_cost",
          "type": "uint256"
        },
        {
          "name": "delta",
          "type": "uint256"
        }
      ],
      "name": "_fixHashingComplexity",
      "outputs": [],
      "payable": false,
      "stateMutability": "nonpayable",
      "type": "function"
    },
    {
      "constant": false,
      "inputs": [],
      "name": "_giveupBalloonHashing",
      "outputs": [],
      "payable": false,
      "stateMutability": "nonpayable",
      "type": "function"
    },
    {
      "constant": false,
      "inputs": [],
      "name": "_retryBalloonHashing",
      "outputs": [],
      "payable": false,
      "stateMutability": "nonpayable",
      "type": "function"
    },
    {
      "constant": false,
      "inputs": [
        {
          "name": "nonce",
          "type": "uint256"
        },
        {
          "name": "challenge_digest",
          "type": "bytes32"
        }
      ],
      "name": "mint",
      "outputs": [
        {
          "name": "",
          "type": "bool"
        }
      ],
      "payable": false,
      "stateMutability": "nonpayable",
      "type": "function"
    },
    {
      "constant": true,
      "inputs": [],
      "name": "getMiningReward",
      "outputs": [
        {
          "name": "",
          "type": "uint256"
        }
      ],
      "payable": false,
      "stateMutability": "view",
      "type": "function"
    },
    {
      "constant": true,
      "inputs": [],
      "name": "getPreviousBlockHash",
      "outputs": [
        {
          "name": "",
          "type": "bytes32"
        }
      ],
      "payable": false,
      "stateMutability": "view",
      "type": "function"
    },
    {
      "constant": true,
      "inputs": [],
      "name": "getMiningDifficulty",
      "outputs": [
        {
          "name": "",
          "type": "uint256"
        }
      ],
      "payable": false,
      "stateMutability": "view",
      "type": "function"
    },
    {
      "constant": true,
      "inputs": [],
      "name": "getCurrentTarget",
      "outputs": [
        {
          "name": "",
          "type": "uint256"
        }
      ],
      "payable": false,
      "stateMutability": "view",
      "type": "function"
    },
    {
      "constant": true,
      "inputs": [],
      "name": "getHashingParameters",
      "outputs": [
        {
          "name": "",
          "type": "uint256[3]"
        }
      ],
      "payable": false,
      "stateMutability": "view",
      "type": "function"
    },
    {
      "constant": true,
      "inputs": [],
      "name": "isBalloon",
      "outputs": [
        {
          "name": "",
          "type": "bool"
        }
      ],
      "payable": false,
      "stateMutability": "view",
      "type": "function"
    },
    {
      "constant": true,
      "inputs": [
        {
          "name": "nonce",
          "type": "uint256"
        },
        {
          "name": "salt",
          "type": "uint256"
        },
        {
          "name": "s_cost",
          "type": "uint256"
        },
        {
          "name": "t_cost",
          "type": "uint256"
        },
        {
          "name": "delta",
          "type": "uint256"
        }
      ],
      "name": "getMintDigest",
      "outputs": [
        {
          "name": "",
          "type": "uint256"
        }
      ],
      "payable": false,
      "stateMutability": "view",
      "type": "function"
    }
  ],
  "bytecode": "0x608060409081526007805460ff19908116909155601391909155620100006014557d040000000000000000000000000000000000000000000000000000000000601555601680549091166001179055612000601755600360188190556019553480156200006b57600080fd5b506040516040806200327c833981018060405260408110156200008d57600080fd5b5080516020918201519091620000c9907f01ffc9a700000000000000000000000000000000000000000000000000000000906200022f811b901c565b620000e1636578737160e01b6200022f60201b60201c565b620000f233620002fe60201b60201c565b6200010a63eab83e2060e01b6200022f60201b60201c565b6200011c82826200035060201b60201c565b6040805180820190915260038082527f5349470000000000000000000000000000000000000000000000000000000000602090920191825262000162916005916200071d565b5060408051808201909152600d8082527f5369676d6f696420546f6b656e000000000000000000000000000000000000006020909201918252620001a9916006916200071d565b506007805461ff001916610800179081905560ff61010082048116600a0a6301406f4002600c551615620001dc57600080fd5b60078054600160ff199091168117909155600855436009556000600a55600c54620002159060026200046f602090811b6200187c17901c565b600b555050601554600d55600019430140600e55620007c2565b7fffffffff000000000000000000000000000000000000000000000000000000008082161415620002c157604080517f08c379a000000000000000000000000000000000000000000000000000000000815260206004820152601b60248201527f4b495031333a20696e76616c696420696e746572666163652069640000000000604482015290519081900360640190fd5b7fffffffff00000000000000000000000000000000000000000000000000000000166000908152602081905260409020805460ff19166001179055565b62000319816004620004c060201b6200280e1790919060201c565b6040516001600160a01b038216907f994a936646fe87ffe4f1e469d3d6aa417d6b855598397f323de5b449f765f0c390600090a250565b6001600160a01b038216620003c657604080517f08c379a000000000000000000000000000000000000000000000000000000000815260206004820152601e60248201527f4b4950373a206d696e7420746f20746865207a65726f20616464726573730000604482015290519081900360640190fd5b620003e2816003546200056460201b620025ca1790919060201c565b6003556001600160a01b03821660009081526001602090815260409091205462000417918390620025ca62000564821b17901c565b6001600160a01b03831660008181526001602090815260408083209490945583518581529351929391927fddf252ad1be2c89b69c2b068fc378daa952ba7f163c4a11628f55a4df523b3ef9281900390910190a35050565b6000620004b983836040518060400160405280601a81526020017f536166654d6174683a206469766973696f6e206279207a65726f000000000000815250620005d960201b60201c565b9392505050565b620004d282826200069a60201b60201c565b156200053f57604080517f08c379a000000000000000000000000000000000000000000000000000000000815260206004820152601f60248201527f526f6c65733a206163636f756e7420616c72656164792068617320726f6c6500604482015290519081900360640190fd5b6001600160a01b0316600090815260209190915260409020805460ff19166001179055565b600082820183811015620004b957604080517f08c379a000000000000000000000000000000000000000000000000000000000815260206004820152601b60248201527f536166654d6174683a206164646974696f6e206f766572666c6f770000000000604482015290519081900360640190fd5b6000818362000683576040517f08c379a00000000000000000000000000000000000000000000000000000000081526004018080602001828103825283818151815260200191508051906020019080838360005b83811015620006475781810151838201526020016200062d565b50505050905090810190601f168015620006755780820380516001836020036101000a031916815260200191505b509250505060405180910390fd5b5060008385816200069057fe5b0495945050505050565b60006001600160a01b038216620006fd576040517f08c379a00000000000000000000000000000000000000000000000000000000081526004018080602001828103825260228152602001806200325a6022913960400191505060405180910390fd5b506001600160a01b03166000908152602091909152604090205460ff1690565b828054600181600116156101000203166002900490600052602060002090601f016020900481019282601f106200076057805160ff191683800117855562000790565b8280016001018555821562000790579182015b828111156200079057825182559160200191906001019062000773565b506200079e929150620007a2565b5090565b620007bf91905b808211156200079e5760008155600101620007a9565b90565b612a8880620007d26000396000f3fe6080604052600436106102465760003560e01c8063490203a71161013957806395d89b41116100b6578063bafedcaa1161007a578063bafedcaa14610878578063cb9ae7071461088d578063dc6e9cf9146108a2578063dd62ed3e146108b7578063e3a43588146108f2578063eb7955491461092857610246565b806395d89b41146106f5578063a9059cbb1461070a578063b5ade81b14610743578063b722c31914610758578063b88d4fde146107a557610246565b806370a08231116100fd57806370a0823114610641578063829965cc146106745780638352bcc5146106895780638395f7a4146106cb57806387a2a9d6146106e057610246565b8063490203a71461059e5780634fa972e1146105b35780636fd396d6146105c85780637065cb48146105f9578063709cd8491461062c57610246565b8063257aeacc116101c7578063313ce5671161018b578063313ce567146104cd5780633325889b146104f857806339148c531461050d578063423f6cef1461052257806342842e0e1461055b57610246565b8063257aeacc1461044457806328c23a45146104595780632ab4d052146104705780632d38bf7a146104855780632f54bf6e1461049a57610246565b80631801fbe51161020e5780631801fbe51461039257806318160ddd146103c2578063192ded39146103d757806323b872dd146103ec57806323d01c291461042f57610246565b806301ffc9a71461024b57806306fdde0314610293578063095ea7b31461031d578063163aa00d1461035657806317da485f1461037d575b600080fd5b34801561025757600080fd5b5061027f6004803603602081101561026e57600080fd5b50356001600160e01b0319166109f0565b604080519115158252519081900360200190f35b34801561029f57600080fd5b506102a8610a0f565b6040805160208082528351818301528351919283929083019185019080838360005b838110156102e25781810151838201526020016102ca565b50505050905090810190601f16801561030f5780820380516001836020036101000a031916815260200191505b509250505060405180910390f35b34801561032957600080fd5b5061027f6004803603604081101561034057600080fd5b506001600160a01b038135169060200135610a9d565b34801561036257600080fd5b5061036b610ab4565b60408051918252519081900360200190f35b34801561038957600080fd5b5061036b610aba565b34801561039e57600080fd5b5061027f600480360360408110156103b557600080fd5b5080359060200135610ad8565b3480156103ce57600080fd5b5061036b610c19565b3480156103e357600080fd5b5061027f610c1f565b3480156103f857600080fd5b5061027f6004803603606081101561040f57600080fd5b506001600160a01b03813581169160208101359091169060400135610c28565b34801561043b57600080fd5b5061036b610c7f565b34801561045057600080fd5b5061036b610c85565b34801561046557600080fd5b5061046e610c8b565b005b34801561047c57600080fd5b5061036b610c96565b34801561049157600080fd5b5061036b610c9c565b3480156104a657600080fd5b5061027f600480360360208110156104bd57600080fd5b50356001600160a01b0316610ca2565b3480156104d957600080fd5b506104e2610cb5565b6040805160ff9092168252519081900360200190f35b34801561050457600080fd5b5061046e610cc3565b34801561051957600080fd5b5061036b610d4a565b34801561052e57600080fd5b5061046e6004803603604081101561054557600080fd5b506001600160a01b038135169060200135610d50565b34801561056757600080fd5b5061046e6004803603606081101561057e57600080fd5b506001600160a01b03813581169160208101359091169060400135610d6e565b3480156105aa57600080fd5b5061036b610d8e565b3480156105bf57600080fd5b5061036b610dc0565b3480156105d457600080fd5b506105dd610dc6565b604080516001600160a01b039092168252519081900360200190f35b34801561060557600080fd5b5061046e6004803603602081101561061c57600080fd5b50356001600160a01b0316610dd5565b34801561063857600080fd5b5061046e610e28565b34801561064d57600080fd5b5061036b6004803603602081101561066457600080fd5b50356001600160a01b0316610eb3565b34801561068057600080fd5b5061036b610ece565b34801561069557600080fd5b5061036b600480360360a08110156106ac57600080fd5b5080359060208101359060408101359060608101359060800135610ed4565b3480156106d757600080fd5b5061036b61159f565b3480156106ec57600080fd5b5061036b6115a5565b34801561070157600080fd5b506102a86115ab565b34801561071657600080fd5b5061027f6004803603604081101561072d57600080fd5b506001600160a01b038135169060200135611606565b34801561074f57600080fd5b5061036b611613565b34801561076457600080fd5b5061076d611619565b6040518082606080838360005b8381101561079257818101518382015260200161077a565b5050505090500191505060405180910390f35b3480156107b157600080fd5b5061046e600480360360808110156107c857600080fd5b6001600160a01b0382358116926020810135909116916040820135919081019060808101606082013564010000000081111561080357600080fd5b82018360208201111561081557600080fd5b8035906020019184600183028401116401000000008311171561083757600080fd5b91908080601f016020809104026020016040519081016040528093929190818152602001838380828437600092019190915250929550611647945050505050565b34801561088457600080fd5b5061036b6116a3565b34801561089957600080fd5b5061036b6116a9565b3480156108ae57600080fd5b5061036b6116af565b3480156108c357600080fd5b5061036b600480360360408110156108da57600080fd5b506001600160a01b03813581169160200135166116b5565b3480156108fe57600080fd5b5061046e6004803603606081101561091557600080fd5b50803590602081013590604001356116e0565b34801561093457600080fd5b5061046e6004803603606081101561094b57600080fd5b6001600160a01b038235169160208101359181019060608101604082013564010000000081111561097b57600080fd5b82018360208201111561098d57600080fd5b803590602001918460018302840111640100000000831117156109af57600080fd5b91908080601f016020809104026020016040519081016040528093929190818152602001838380828437600092019190915250929550611735945050505050565b6001600160e01b03191660009081526020819052604090205460ff1690565b6006805460408051602060026001851615610100026000190190941693909304601f81018490048402820184019092528181529291830182828015610a955780601f10610a6a57610100808354040283529160200191610a95565b820191906000526020600020905b815481529060010190602001808311610a7857829003601f168201915b505050505081565b6000610aaa33848461178a565b5060015b92915050565b60125481565b6000610ad3600d5460155461187c90919063ffffffff16565b905090565b601654600090819060ff1615610b0157610afa846017546018546019546118c5565b9050610b3a565b50600e54604080516020808201939093523360601b81830152605480820187905282518083039091018152607490910190915280519101205b828114610b4657600080fd5b600d54811115610b5557600080fd5b600e546000908152600f602052604090208054908290558015610b7757600080fd5b6000610b81610d8e565b9050610b8d3382611fb5565b600b54610b98610c19565b1115610ba057fe5b601080546001600160a01b03191633179055601181905543601255610bc36120aa565b600854600e54604080518481526020810193909352828101919091525133917fcf6fbb9dcea7d07263ab4f5c3a92f53af33dffc421d9d121e1c74b307e68189d919081900360600190a250600195945050505050565b60035490565b60165460ff1690565b6000610c35848484612166565b6001600160a01b038416600090815260026020908152604080832033808552925290912054610c75918691610c70908663ffffffff6122b016565b61178a565b5060019392505050565b600d5490565b600e5481565b610c94336122f2565b565b600c5481565b600a5481565b6000610aae60048363ffffffff61233a16565b600754610100900460ff1681565b610ccc33610ca2565b610d0a57604051600160e51b62461bcd02815260040180806020018281038252602e815260200180612984602e913960400191505060405180910390fd5b6016805460ff19169055604080516000815290517f57f4ea62a3f3b7e9492e7316797c3b27a4eebf2326e5c037f19a66e2e73d987d9181900360200190a1565b600d5481565b610d6a828260405180602001604052806000815250611735565b5050565b610d8983838360405180602001604052806000815250611647565b505050565b6000610ad3600a5460020a600760019054906101000a900460ff1660ff16600a0a60320261187c90919063ffffffff16565b600b5481565b6010546001600160a01b031681565b610dde33610ca2565b610e1c57604051600160e51b62461bcd02815260040180806020018281038252602e815260200180612984602e913960400191505060405180910390fd5b610e25816123a4565b50565b610e3133610ca2565b610e6f57604051600160e51b62461bcd02815260040180806020018281038252602e815260200180612984602e913960400191505060405180910390fd5b6016805460ff1916600190811790915560408051918252517f57f4ea62a3f3b7e9492e7316797c3b27a4eebf2326e5c037f19a66e2e73d987d9181900360200190a1565b6001600160a01b031660009081526001602052604090205490565b60085481565b6000606084604051908082528060200260200182016040528015610f02578160200160208202803883390190505b506040805160006020808301919091528183018a905260608083018c9052835180840390910181526080909201928390528151939450600193600293918291908401908083835b60208310610f685780518252601f199092019160209182019101610f49565b51815160209384036101000a60001901801990921691161790526040519190930194509192505080830381855afa158015610fa7573d6000803e3d6000fd5b5050506040513d6020811015610fbc57600080fd5b505182518390600090610fcb57fe5b602090810291909101015260015b868110156110cd57600282806001019350846001840381518110610ff957fe5b602002602001015160405160200180838152602001828152602001925050506040516020818303038152906040526040518082805190602001908083835b602083106110565780518252601f199092019160209182019101611037565b51815160209384036101000a60001901801990921691161790526040519190930194509192505080830381855afa158015611095573d6000803e3d6000fd5b5050506040513d60208110156110aa57600080fd5b505183518490839081106110ba57fe5b6020908102919091010152600101610fd9565b5060005b858110156115775760005b8781101561156e5780156111d55760028380600101945085600184038151811061110257fe5b602002602001015186848151811061111657fe5b60200260200101516040516020018084815260200183815260200182815260200193505050506040516020818303038152906040526040518082805190602001908083835b6020831061117a5780518252601f19909201916020918201910161115b565b51815160209384036101000a60001901801990921691161790526040519190930194509192505080830381855afa1580156111b9573d6000803e3d6000fd5b5050506040513d60208110156111ce57600080fd5b50516112bd565b6002838060010194508560018b03815181106111ed57fe5b60200260200101518660008151811061120257fe5b60200260200101516040516020018084815260200183815260200182815260200193505050506040516020818303038152906040526040518082805190602001908083835b602083106112665780518252601f199092019160209182019101611247565b51815160209384036101000a60001901801990921691161790526040519190930194509192505080830381855afa1580156112a5573d6000803e3d6000fd5b5050506040513d60208110156112ba57600080fd5b50515b8482815181106112c957fe5b602090810291909101015260005b86811015611565576000896002868060010197508d60028888886040516020018084815260200183815260200182815260200193505050506040516020818303038152906040526040518082805190602001908083835b6020831061134d5780518252601f19909201916020918201910161132e565b51815160209384036101000a60001901801990921691161790526040519190930194509192505080830381855afa15801561138c573d6000803e3d6000fd5b5050506040513d60208110156113a157600080fd5b5051604080516020818101959095528082019390935260608084019290925280518084039092018252608090920191829052805190928291908401908083835b602083106114005780518252601f1990920191602091820191016113e1565b51815160209384036101000a60001901801990921691161790526040519190930194509192505080830381855afa15801561143f573d6000803e3d6000fd5b5050506040513d602081101561145457600080fd5b50518161145d57fe5b06905060028580600101965087858151811061147557fe5b602002602001015188848151811061148957fe5b60200260200101516040516020018084815260200183815260200182815260200193505050506040516020818303038152906040526040518082805190602001908083835b602083106114ed5780518252601f1990920191602091820191016114ce565b51815160209384036101000a60001901801990921691161790526040519190930194509192505080830381855afa15801561152c573d6000803e3d6000fd5b5050506040513d602081101561154157600080fd5b5051865187908590811061155157fe5b6020908102919091010152506001016112d7565b506001016110dc565b506001016110d1565b5081600187038151811061158757fe5b602002602001015160001c9250505095945050505050565b600e5490565b60155481565b6005805460408051602060026001851615610100026000190190941693909304601f81018490048402820184019092528181529291830182828015610a955780601f10610a6a57610100808354040283529160200191610a95565b6000610aaa338484612166565b60135481565b6116216128f4565b604051806060016040528060175481526020016018548152602001601954815250905090565b611652848484610c28565b5061165f848484846123ec565b61169d57604051600160e51b62461bcd02815260040180806020018281038252602e815260200180612934602e913960400191505060405180910390fd5b50505050565b60115481565b60095481565b60145481565b6001600160a01b03918216600090815260026020908152604080832093909416825291909152205490565b6116e933610ca2565b61172757604051600160e51b62461bcd02815260040180806020018281038252602e815260200180612984602e913960400191505060405180910390fd5b601792909255601855601955565b61173f8383611606565b5061174c338484846123ec565b610d8957604051600160e51b62461bcd02815260040180806020018281038252602e815260200180612934602e913960400191505060405180910390fd5b6001600160a01b0383166117d257604051600160e51b62461bcd028152600401808060200182810382526023815260200180612a3a6023913960400191505060405180910390fd5b6001600160a01b03821661181a57604051600160e51b62461bcd0281526004018080602001828103825260218152602001806129136021913960400191505060405180910390fd5b6001600160a01b03808416600081815260026020908152604080832094871680845294825291829020859055815185815291517f8c5be1e5ebec7d5bd14f71427d1e84f3dd0314c0f7b2291e5b200ac8c7c3b9259281900390910190a3505050565b60006118be83836040518060400160405280601a81526020017f536166654d6174683a206469766973696f6e206279207a65726f000000000000815250612525565b9392505050565b60006060846040519080825280602002602001820160405280156118f3578160200160208202803883390190505b50600e546040805160006020808301919091528183019390935233606090811b9082015260748082018b90528251808303909101815260949091019182905280519394506001936002939192918291908401908083835b602083106119695780518252601f19909201916020918201910161194a565b51815160209384036101000a60001901801990921691161790526040519190930194509192505080830381855afa1580156119a8573d6000803e3d6000fd5b5050506040513d60208110156119bd57600080fd5b5051825183906000906119cc57fe5b602090810291909101015260015b86811015611ace576002828060010193508460018403815181106119fa57fe5b602002602001015160405160200180838152602001828152602001925050506040516020818303038152906040526040518082805190602001908083835b60208310611a575780518252601f199092019160209182019101611a38565b51815160209384036101000a60001901801990921691161790526040519190930194509192505080830381855afa158015611a96573d6000803e3d6000fd5b5050506040513d6020811015611aab57600080fd5b50518351849083908110611abb57fe5b60209081029190910101526001016119da565b5060005b85811015611f905760005b87811015611f87578015611bd657600283806001019450856001840381518110611b0357fe5b6020026020010151868481518110611b1757fe5b60200260200101516040516020018084815260200183815260200182815260200193505050506040516020818303038152906040526040518082805190602001908083835b60208310611b7b5780518252601f199092019160209182019101611b5c565b51815160209384036101000a60001901801990921691161790526040519190930194509192505080830381855afa158015611bba573d6000803e3d6000fd5b5050506040513d6020811015611bcf57600080fd5b5051611cbe565b6002838060010194508560018b0381518110611bee57fe5b602002602001015186600081518110611c0357fe5b60200260200101516040516020018084815260200183815260200182815260200193505050506040516020818303038152906040526040518082805190602001908083835b60208310611c675780518252601f199092019160209182019101611c48565b51815160209384036101000a60001901801990921691161790526040519190930194509192505080830381855afa158015611ca6573d6000803e3d6000fd5b5050506040513d6020811015611cbb57600080fd5b50515b848281518110611cca57fe5b602090810291909101015260005b86811015611f7e57600089600286806001019750600e543360028989896040516020018084815260200183815260200182815260200193505050506040516020818303038152906040526040518082805190602001908083835b60208310611d515780518252601f199092019160209182019101611d32565b51815160209384036101000a60001901801990921691161790526040519190930194509192505080830381855afa158015611d90573d6000803e3d6000fd5b5050506040513d6020811015611da557600080fd5b505160408051602081810196909652808201949094526001600160a01b03909216606090811b908401526074808401919091528151808403909101815260949092019081905281519192909182918401908083835b60208310611e195780518252601f199092019160209182019101611dfa565b51815160209384036101000a60001901801990921691161790526040519190930194509192505080830381855afa158015611e58573d6000803e3d6000fd5b5050506040513d6020811015611e6d57600080fd5b505181611e7657fe5b069050600285806001019650878581518110611e8e57fe5b6020026020010151888481518110611ea257fe5b60200260200101516040516020018084815260200183815260200182815260200193505050506040516020818303038152906040526040518082805190602001908083835b60208310611f065780518252601f199092019160209182019101611ee7565b51815160209384036101000a60001901801990921691161790526040519190930194509192505080830381855afa158015611f45573d6000803e3d6000fd5b5050506040513d6020811015611f5a57600080fd5b50518651879085908110611f6a57fe5b602090810291909101015250600101611cd8565b50600101611add565b50600101611ad2565b50816001870381518110611fa057fe5b6020026020010151925050505b949350505050565b6001600160a01b0382166120135760408051600160e51b62461bcd02815260206004820152601e60248201527f4b4950373a206d696e7420746f20746865207a65726f20616464726573730000604482015290519081900360640190fd5b600354612026908263ffffffff6125ca16565b6003556001600160a01b038216600090815260016020526040902054612052908263ffffffff6125ca16565b6001600160a01b03831660008181526001602090815260408083209490945583518581529351929391927fddf252ad1be2c89b69c2b068fc378daa952ba7f163c4a11628f55a4df523b3ef9281900390910190a35050565b600b546120cc6120b8610d8e565b6120c0610c19565b9063ffffffff6125ca16565b1180156120db57506027600a54105b156120f857600a546120f490600163ffffffff6125ca16565b600a555b612127612118600a5460010160020a600c5461187c90919063ffffffff16565b600c549063ffffffff6122b016565b600b5560085461213e90600163ffffffff6125ca16565b6008819055601354908161214e57fe5b0661215b5761215b612627565b600019430140600e55565b6001600160a01b0383166121ae57604051600160e51b62461bcd0281526004018080602001828103825260248152602001806129d36024913960400191505060405180910390fd5b6001600160a01b0382166121f657604051600160e51b62461bcd0281526004018080602001828103825260228152602001806129626022913960400191505060405180910390fd5b6001600160a01b03831660009081526001602052604090205461221f908263ffffffff6122b016565b6001600160a01b038085166000908152600160205260408082209390935590841681522054612254908263ffffffff6125ca16565b6001600160a01b0380841660008181526001602090815260409182902094909455805185815290519193928716927fddf252ad1be2c89b69c2b068fc378daa952ba7f163c4a11628f55a4df523b3ef92918290030190a3505050565b60006118be83836040518060400160405280601e81526020017f536166654d6174683a207375627472616374696f6e206f766572666c6f770000815250612747565b61230360048263ffffffff6127a416565b6040516001600160a01b038216907f58619076adf5bb0943d100ef88d52d7c3fd691b19d3a9071b555b651fbf418da90600090a250565b60006001600160a01b03821661238457604051600160e51b62461bcd028152600401808060200182810382526022815260200180612a186022913960400191505060405180910390fd5b506001600160a01b03166000908152602091909152604090205460ff1690565b6123b560048263ffffffff61280e16565b6040516001600160a01b038216907f994a936646fe87ffe4f1e469d3d6aa417d6b855598397f323de5b449f765f0c390600090a250565b6000612400846001600160a01b0316612892565b61240c57506001611fad565b604051600160e11b634e8c461102815233600482018181526001600160a01b03888116602485015260448401879052608060648501908152865160848601528651600095928a1694639d188c229490938c938b938b939260a4019060208501908083838e5b83811015612489578181015183820152602001612471565b50505050905090810190601f1680156124b65780820380516001836020036101000a031916815260200191505b5095505050505050602060405180830381600087803b1580156124d857600080fd5b505af11580156124ec573d6000803e3d6000fd5b505050506040513d602081101561250257600080fd5b50516001600160e01b031916600160e11b634e8c46110214915050949350505050565b600081836125b457604051600160e51b62461bcd0281526004018080602001828103825283818151815260200191508051906020019080838360005b83811015612579578181015183820152602001612561565b50505050905090810190601f1680156125a65780820380516001836020036101000a031916815260200191505b509250505060405180910390fd5b5060008385816125c057fe5b0495945050505050565b6000828201838110156118be5760408051600160e51b62461bcd02815260206004820152601b60248201527f536166654d6174683a206164646974696f6e206f766572666c6f770000000000604482015290519081900360640190fd5b60095460135443919091039061025802600061265a61264d83600263ffffffff61187c16565b839063ffffffff6125ca16565b9050600061267f61267284600463ffffffff61187c16565b849063ffffffff6122b016565b9050828411156126c1576126ba6126ad60086126a1878763ffffffff6122b016565b9063ffffffff61187c16565b849063ffffffff6125ca16565b93506126dc565b6126d961267260086126a1868863ffffffff6122b016565b93505b808410156126ec578093506126f8565b818411156126f8578193505b612711836126a186600d5461289890919063ffffffff16565b600d819055601454111561272a57601454600d5561273d565b601554600d54111561273d57601554600d555b5050436009555050565b6000818484111561279c57604051600160e51b62461bcd028152602060048201818152835160248401528351909283926044909101919085019080838360008315612579578181015183820152602001612561565b505050900390565b6127ae828261233a565b6127ec57604051600160e51b62461bcd0281526004018080602001828103825260218152602001806129b26021913960400191505060405180910390fd5b6001600160a01b0316600090815260209190915260409020805460ff19169055565b612818828261233a565b1561286d5760408051600160e51b62461bcd02815260206004820152601f60248201527f526f6c65733a206163636f756e7420616c72656164792068617320726f6c6500604482015290519081900360640190fd5b6001600160a01b0316600090815260209190915260409020805460ff19166001179055565b3b151590565b6000826128a757506000610aae565b828202828482816128b457fe5b04146118be57604051600160e51b62461bcd0281526004018080602001828103825260218152602001806129f76021913960400191505060405180910390fd5b6040518060600160405280600390602082028038833950919291505056fe4b4950373a20617070726f766520746f20746865207a65726f20616464726573734b4950373a207472616e7366657220746f206e6f6e204b495037526563656976657220696d706c656d656e7465724b4950373a207472616e7366657220746f20746865207a65726f20616464726573734f776e6572526f6c653a2063616c6c657220646f6573206e6f74206861766520746865204f776e657220726f6c65526f6c65733a206163636f756e7420646f6573206e6f74206861766520726f6c654b4950373a207472616e736665722066726f6d20746865207a65726f2061646472657373536166654d6174683a206d756c7469706c69636174696f6e206f766572666c6f77526f6c65733a206163636f756e7420697320746865207a65726f20616464726573734b4950373a20617070726f76652066726f6d20746865207a65726f2061646472657373a165627a7a72305820574e17bb169ea37825a3a7adf6b82e8cc2eee2331cec9860e0675ddc8039f0950029526f6c65733a206163636f756e7420697320746865207a65726f2061646472657373",
  "source": "// Copyright (c) 2022 John Weligon\n// Forked from code by 0xBitcoin.\n// Distributed under the MIT software license, see the accompanying\n// file COPYING or http://www.opensource.org/licenses/mit-license.php.\n\npragma solidity ^0.5.0;\n\nimport \"../KIP7.sol\";\nimport \"../OwnerRole.sol\";\nimport \"../KIP13.sol\";\n\n/**\n * @dev Extension of `KIP7` that adds a set of accounts with the `OwnerRole`,\n * which have permission to mint (create) new tokens as they see fit.\n *\n * At construction, the deployer of the contract is the only minter.\n *\n * See http://kips.klaytn.com/KIPs/kip-7-fungible_token\n */\ncontract SigmoidTokenMock is KIP13, KIP7, OwnerRole {\n    using SafeMath for uint256;\n    using Address for address;\n    /*\n     *     bytes4(keccak256('mint(address,uint256)')) == 0x40c10f19\n     *     bytes4(keccak256('isOwner(address)')) == 0xaa271e1a\n     *     bytes4(keccak256('addOwner(address)')) == 0x983b2d56\n     *     bytes4(keccak256('renounceOwner()')) == 0x98650275\n     *\n     *     => 0x40c10f19 ^ 0xaa271e1a ^ 0x983b2d56 ^ 0x98650275 == 0xeab83e20\n     */\n    bytes4 private constant _INTERFACE_ID_KIP7MINTABLE = 0xeab83e20;\n\n    // Token symbol name\n    string public symbol;\n    string public name;\n\n    // lock initialization\n    bool locked = false;\n    \n    uint8 public decimals;\n\n    uint public epochCount;             // number of 'blocks' mined\n    uint public latestDifficultyPeriodStarted;\n    uint public rewardEra;              // era for halving reward\n    uint public maxSupplyForEra;        // maximum supply that can be minted in current era\n    uint public maxTotalSupply;         // total maximum supply that can be minted\n\n    uint public currentTarget;          // hash should be lower than this\n    bytes32 public previousBlockHash;   // recent Klaytn block hash. used to prevent pre-hashing\n    // nonces already used for minting. prevents mining with the same answer\n    mapping(bytes32 => bytes32) solutionForChallenge;\n\n    // for checking\n    address public lastRewardTo;\n    uint public lastRewardAmount;\n    uint public lastRewardEthBlockNumber;\n\n    // parameters for difficulty adjustment\n    uint public _BLOCKS_PER_READJUSTMENT = 64;    // difficulty re-adjustment 'block' interval\n    uint public _MINIMUM_TARGET = 2 ** 16;\n    uint public _MAXIMUM_TARGET = 2 ** 234;\n\n    // parameters for balloon hashing\n    bool private is_balloon = true;\n    uint private _S_COST = 8192;   // make a 260KB scratchpad. 2 ^ 18 / 32\n    uint private _T_COST = 3;\n    uint private _DELTA = 3;\n\n    event Mint(address indexed from, uint reward_amount, uint epochCount, bytes32 newBlockHash);\n    event Switch(bool is_balloon);\n\n    constructor (address initialAccount, uint256 initialBalance) public {\n        // register the supported interfaces to conform to KIP7 via KIP13\n        _registerInterface(_INTERFACE_ID_KIP7MINTABLE);\n        _mint(initialAccount, initialBalance);\n\n        symbol = \"SIG\";\n        name = \"Sigmoid Token\";\n\n        decimals = 8;\n        maxTotalSupply = 21000000 * (10 ** uint(decimals));\n\n        if(locked) revert();\n        locked = true;\n\n        epochCount = 1;\n        latestDifficultyPeriodStarted = block.number;\n        rewardEra = 0;\n        maxSupplyForEra = maxTotalSupply.div(2);\n\n        currentTarget = _MAXIMUM_TARGET;\n        previousBlockHash = blockhash(block.number - 1);\n    }\n\n    // if hashing takes too much gas or hashing is way too easy, this function will be used\n    function _fixHashingComplexity(uint s_cost, uint t_cost, uint delta) public onlyOwner {\n        _S_COST = s_cost;\n        _T_COST = t_cost;\n        _DELTA = delta;\n    }\n\n    // if hashing takes WAY too much gas, give up balloon hashing\n    function _giveupBalloonHashing() public onlyOwner {\n        is_balloon = false;\n        emit Switch(false);\n    }\n\n    // retry using balloon hashing\n    function _retryBalloonHashing() public onlyOwner {\n        is_balloon = true;\n        emit Switch(true);\n    }\n\n    function mint(uint256 nonce, bytes32 challenge_digest) public returns (bool) {\n        //the PoW must contain work that includes a recent Klaytn block hash and the msg.sender's address to prevent MITM attacks\n        bytes32 digest;\n        if (is_balloon) {\n            digest = _balloon_hash(nonce, _S_COST, _T_COST, _DELTA);\n        } else {\n            digest = keccak256(abi.encodePacked(previousBlockHash, msg.sender, nonce));\n        }\n\n        //the challenge digest must match the expected\n        if (digest != challenge_digest) revert();\n\n        //the digest must be smaller than the target\n        if(uint256(digest) > currentTarget) revert();\n\n        //only allow one reward for each challenge\n        bytes32 solution = solutionForChallenge[previousBlockHash];\n        solutionForChallenge[previousBlockHash] = digest;\n        if(solution != 0x0) revert();  //prevent the same answer from awarding twice\n\n        // rewarding\n        uint reward_amount = getMiningReward();\n        _mint(msg.sender, reward_amount);\n\n        // cannot mint more tokens than the assigned amount to the current era\n        assert(totalSupply() <= maxSupplyForEra);\n\n        //set readonly diagnostics data\n        lastRewardTo = msg.sender;\n        lastRewardAmount = reward_amount;\n        lastRewardEthBlockNumber = block.number;\n\n        _startNewMiningEpoch();\n        emit Mint(msg.sender, reward_amount, epochCount, previousBlockHash);\n        return true;\n    }\n\n    // Sigmoid: Balloon hashing.\n    function _balloon_hash(uint256 nonce, uint s_cost, uint t_cost, uint delta) internal returns (bytes32 digest) {\n        bytes32[] memory buf = new bytes32[](s_cost);\n        uint cnt = 0;\n\n        // Step 1. Expand input into buffer.\n        buf[0] = sha256(abi.encodePacked(cnt++, previousBlockHash, msg.sender, nonce));\n        for (uint m = 1; m < s_cost; m++) {\n            buf[m] = sha256(abi.encodePacked(cnt++, buf[m - 1]));\n        }\n\n        // Step 2. Mix buffer contents.\n        for (uint t = 0; t < t_cost; t++) {\n            for (uint m = 0; m < s_cost; m++) {\n                // Step 2a. Hash last and current blocks.\n                buf[m] = (m == 0) ? sha256(abi.encodePacked(cnt++, buf[s_cost - 1], buf[0])) : sha256(abi.encodePacked(cnt++, buf[m - 1], buf[m]));\n\n                // Step 2b. Hash in pseudorandomly chosen blocks.\n                for (uint i = 0; i < delta; i++) {\n                    uint other = uint256(sha256(abi.encodePacked(cnt++, previousBlockHash, msg.sender, sha256(abi.encodePacked(t, m, i))))) % s_cost; // in \"big\" order\n                    buf[m] = sha256(abi.encodePacked(cnt++, buf[m], buf[other]));\n                }\n            }\n        }\n\n        // Step 3. Extract output from buffer.\n        return buf[s_cost - 1];\n    }\n\n    function _startNewMiningEpoch() internal{\n        // if max supply for the era will be exceeded next reward round, then enter the new era before that happens\n        // 40 is the final reward era, almost all tokens minted\n        // once the final era is reached, more tokens will not be given out because the assert function\n        if(totalSupply().add(getMiningReward()) > maxSupplyForEra && rewardEra < 39)\n            rewardEra = rewardEra.add(1);\n\n        // set the next minted supply at which the era will change\n        // total supply is 2100000000000000  because of 8 decimal places\n        maxSupplyForEra = maxTotalSupply.sub(maxTotalSupply.div(2 ** (rewardEra + 1)));\n        epochCount = epochCount.add(1);\n\n        // re-adjust difficulty when the time comes\n        if(epochCount % _BLOCKS_PER_READJUSTMENT == 0) _reAdjustDifficulty();\n\n        // make the latest Klaytn block hash a part of the next challenge for PoW to prevent pre-mining future blocks\n        // do this last since this is a protection mechanism in the mint() function\n        previousBlockHash = blockhash(block.number - 1);\n    }\n\n    function _reAdjustDifficulty() internal {\n        // Digishield implementation. Dogecoin version.\n        // Klaytn: 1 block generation per second\n        // Sigmoid: 1 minting per 10 minute\n        uint modulatedTimespan = block.number - latestDifficultyPeriodStarted;\n        uint retargetTimespan = _BLOCKS_PER_READJUSTMENT * 600;\n        uint maxTimespan = retargetTimespan.add(retargetTimespan.div(2));\n        uint minTimespan = retargetTimespan.sub(retargetTimespan.div(4));\n\n        if (modulatedTimespan > retargetTimespan) {\n            modulatedTimespan = retargetTimespan.add((modulatedTimespan.sub(retargetTimespan)).div(8));\n        } else {\n            modulatedTimespan = retargetTimespan.sub((retargetTimespan.sub(modulatedTimespan)).div(8));\n        }\n\n        // limit adjustment step\n        if (modulatedTimespan < minTimespan) {\n            modulatedTimespan = minTimespan;\n        } else if (modulatedTimespan > maxTimespan) {\n            modulatedTimespan = maxTimespan;\n        }\n\n        // retarget\n        currentTarget = (currentTarget.mul(modulatedTimespan)).div(retargetTimespan);\n        if (currentTarget < _MINIMUM_TARGET) {\n            currentTarget = _MINIMUM_TARGET;\n        } else if (currentTarget > _MAXIMUM_TARGET) {\n            currentTarget = _MAXIMUM_TARGET;\n        }\n\n        latestDifficultyPeriodStarted = block.number;\n    }\n\n    // 21M coins total\n    // reward begins at 50 and is cut in half every reward era (as tokens are mined)\n    function getMiningReward() public view returns (uint) {\n        //once we get half way thru the coins, only get 25 per block\n        //every reward era, the reward amount halves.\n        return (50 * (10 ** uint(decimals))).div(2**rewardEra) ;\n    }\n\n    // this is a recent Klaytn block hash, used to prevent pre-mining future blocks\n    function getPreviousBlockHash() public view returns (bytes32) {return previousBlockHash;}\n\n    // the number of zeroes the digest of the PoW solution requires. Auto adjusts\n    function getMiningDifficulty() public view returns (uint) {return _MAXIMUM_TARGET.div(currentTarget);}\n\n    function getCurrentTarget() public view returns (uint) {return currentTarget;}\n    \n    function getHashingParameters() public view returns (uint[3] memory) {return [_S_COST, _T_COST, _DELTA];}\n\n    function isBalloon() public view returns (bool) {return is_balloon;}\n\n    // Don't accept native asset\n    function () external payable {revert();}\n\n    // --------------------------------------\n    // For Debugging\n    // --------------------------------------\n\nfunction getMintDigest(uint256 nonce, uint256 salt, uint s_cost, uint t_cost, uint delta) public view returns (uint) {\n        bytes32[] memory buf = new bytes32[](s_cost);\n        uint cnt = 0;\n\n        // Step 1. Expand input into buffer.\n        buf[0] = sha256(abi.encodePacked(cnt++, salt, nonce));\n        for (uint m = 1; m < s_cost; m++) {\n            buf[m] = sha256(abi.encodePacked(cnt++, buf[m - 1]));\n        }\n\n        // Step 2. Mix buffer contents.\n        for (uint t = 0; t < t_cost; t++) {\n            for (uint m = 0; m < s_cost; m++) {\n                // Step 2a. Hash last and current blocks.\n                buf[m] = (m == 0) ? sha256(abi.encodePacked(cnt++, buf[s_cost - 1], buf[0])) : sha256(abi.encodePacked(cnt++, buf[m - 1], buf[m]));\n\n                // Step 2b. Hash in pseudorandomly chosen blocks.\n                for (uint i = 0; i < delta; i++) {\n                    uint other = uint256(sha256(abi.encodePacked(cnt++, salt, sha256(abi.encodePacked(t, m, i))))) % s_cost; // in \"big\" order\n                    buf[m] = sha256(abi.encodePacked(cnt++, buf[m], buf[other]));\n                }\n            }\n        }\n\n        // Step 3. Extract output from buffer.\n        return uint256(buf[s_cost - 1]);\n    }\n}\n",
  "sourcePath": "/home/jinwoolim/sigmoid-token/contracts/mocks/SigmoidTokenMock.sol",
  "compiler": {
    "name": "solc",
    "version": "0.5.6+commit.b259423e.Emscripten.clang"
  },
  "schemaVersion": "3.4.4",
  "updatedAt": "2022-02-24T22:30:09.358Z",
  "devdoc": {
    "details": "Extension of `KIP7` that adds a set of accounts with the `OwnerRole`, which have permission to mint (create) new tokens as they see fit. * At construction, the deployer of the contract is the only minter. * See http://kips.klaytn.com/KIPs/kip-7-fungible_token",
    "methods": {
      "allowance(address,address)": {
        "details": "See `IKIP7.allowance`."
      },
      "approve(address,uint256)": {
        "details": "See `IKIP7.approve`.     * Requirements:     * - `spender` cannot be the zero address."
      },
      "balanceOf(address)": {
        "details": "See `IKIP7.balanceOf`."
      },
      "safeTransfer(address,uint256)": {
        "details": "Moves `amount` tokens from the caller's account to `recipient`."
      },
      "safeTransfer(address,uint256,bytes)": {
        "details": "Moves `amount` tokens from the caller's account to `recipient`."
      },
      "safeTransferFrom(address,address,uint256)": {
        "details": "Moves `amount` tokens from `sender` to `recipient` using the allowance mechanism. `amount` is then deducted from the caller's allowance."
      },
      "safeTransferFrom(address,address,uint256,bytes)": {
        "details": "Moves `amount` tokens from `sender` to `recipient` using the allowance mechanism. `amount` is then deducted from the caller's allowance."
      },
      "supportsInterface(bytes4)": {
        "details": "See `IKIP13.supportsInterface`.     * Time complexity O(1), guaranteed to always use less than 30 000 gas."
      },
      "totalSupply()": {
        "details": "See `IKIP7.totalSupply`."
      },
      "transfer(address,uint256)": {
        "details": "See `IKIP7.transfer`.     * Requirements:     * - `recipient` cannot be the zero address. - the caller must have a balance of at least `amount`."
      },
      "transferFrom(address,address,uint256)": {
        "details": "See `IKIP7.transferFrom`.     * Emits an `Approval` event indicating the updated allowance. This is not required by the KIP. See the note at the beginning of `KIP7`;     * Requirements: - `sender` and `recipient` cannot be the zero address. - `sender` must have a balance of at least `value`. - the caller must have allowance for `sender`'s tokens of at least `amount`."
      }
    }
  },
  "userdoc": {
    "methods": {}
  }
}